:1000000065C1000080C100007EC100007CC100000D
:100010007AC1000078C1000076C1000074C1000000
:1000200072C1000070C100006EC500006CC100000C
:100030006AC1000068C1000066C1000064C1000020
:1000400020C5000060C100005EC100005CC100006E
:100050005AC1000058C1000056C1000054C1000040
:1000600052C1000050C100004EC100004CC1000050
:100070004AC1000048C1000046C1000044C1000060
:1000800042C1000040C100003EC100000500000068
:1000900000000500005F00000500070007000504E0
:1000A0000C1C0C040580808080800523130864628A
:1000B00005364956205005080703000005001C229C
:1000C0004100050041221C000514083E08140508E3
:1000D000083E08080500B070000005080808080878
:1000E000050060600000052010080402053E51492B
:1000F000453E0500427F40000572494949460521B9
:1001000041494D33051814127F10052745454539DF
:10011000053C4A494931054121110907053649493C
:10012000493605464949291E05000014000005000E
:1001300040340000051C3E3E3E1C051414141414EB
:10014000051C2222221C0502015909060510181C53
:100150001810057C1211127C057F49494936053E6D
:1001600041414122057F4141413E057F494949497D
:10017000057F09090909053E41415173057F0808BA
:10018000087F0500417F4100052040413F01057F78
:1001900008142241057F40404040057F020C027F49
:1001A000057F0408107F053E4141413E057F090956
:1001B0000906053E4151215E057F0919294605269C
:1001C000494949320501017F0101053F4040403F57
:1001D000051F2040201F053F4038403F056314089D
:1001E0001463050304780403056151494543050080
:1001F0007F414100050204081020050041417F00B5
:1002000005000609090605404040404005070B006F
:100210000000052054547840057F284444380538B0
:100220004444442805384444287F0538545454181D
:100230000500087E09020518A4A49C78057F08041F
:1002400004780500447D4000052040403D00057FC6
:10025000102844000500417F4000057C04780478A4
:10026000057C0804047805384444443805FC182407
:1002700024180518242418FC057C080404080548E3
:10028000545454240504043F4424053C4040207C3D
:10029000051C2040201C053C4030403C05442810F3
:1002A0002844054C9090907C054464544C440500CF
:1002B00008364100050000770000050041360800BF
:1002C00005040204080405007F417F0011241FBEBD
:1002D000CFEFD0E1DEBFCDBF15E0A0E0B1E0E8EEAA
:1002E000F2E100E00BBF02C007900D92A43EB107FF
:1002F000D9F72BE0A4EEB5E001C01D92A436B207F9
:10030000E1F792D5EFC77CCE80FF02C0D89A01C03A
:10031000D89881FF02C0D99A01C0D99882FF02C043
:10032000DA9A01C0DA9883FF02C0DB9A01C0DB9839
:1003300084FF02C0DC9A01C0DC9885FF02C0DD9A10
:1003400001C0DD9886FF02C0DE9A01C0DE9887FFFB
:1003500002C0DF9A01C0DF98C09A85E08A95F1F764
:100360000000C09885E08A95F1F70000089581119A
:1003700003C0C598C49A0895813011F4C49801C08F
:10038000C49AC59A0895F3DFD798C298C19AC098C5
:1003900085E08A95F1F70000C09A95E09A95F1F70B
:1003A000000089B3C0989AE29A95F1F700C087FDE2
:1003B000F3CFC198D79A0895CF93DF93D82FC62F44
:1003C000623011F0862F03C080E0DDDF81E0DBDFEB
:1003D0008C2FCDDF85E38A95F1F70000C29885E385
:1003E0008A95F1F70000C1988D2FDF91CF918CCFC6
:1003F000CF93DF93C82FD62F623011F0862F03C022
:1004000080E0C1DF81E0BFDF8D2FB1DFC29A85E3DD
:100410008A95F1F70000C19885E38A95F1F700000D
:100420008091E306813019F08C2F809501C08C2FCC
:100430006BDF8091E10691E0980F9093E106903494
:1004400031F48F5361E08064DF91CF91B5CF97FF96
:1004500003C08FE78093E106DF91CF91089587FF76
:100460008093E10608959091E206903410F4809311
:10047000E20608950F931F93CF93C0E01092E10618
:1004800060E080E499DFC093E20662E08C2F8695FD
:1004900086958695886B90DF00E010E061E000347F
:1004A00008F460E08091E206869586958695F801CD
:1004B00093E0EE0FFF1F9A95E1F7E551F94FE80F32
:1004C000F11D808195DF0F5F1F4F0038110531F757
:1004D000C85FC03499F6CF911F910F910895CF93C3
:1004E000C62FBDDF8C2FCF91BECF9F92AF92BF9210
:1004F000CF92DF92EF92FF920F931F93CF93DF93F0
:1005000087FDC3C047FDC1C0603408F0BEC02034C1
:1005100008F0BBC02F5FC22EC61A4F5FD42ED81A68
:10052000962F9770162F191BAC2CB12C28E030E0B9
:10053000A901491B5109A416B5065CF42A193B0907
:10054000CFEFD0E002C0D595C7952A95E2F79C2C55
:1005500004C028E0922E991ACFEF01C0CC0F9A95D3
:10056000EAF7DC2FE82EF12C612F70E0C701B7DF2E
:100570006091E1062091E20626952695269530E0C9
:1005800050E0C095852F860FD516B9F048E0849FBE
:10059000C0011124FC01E551F94FE20FF31F408126
:1005A0000F3F11F44D2B01C04C238551994FFC0195
:1005B000E20FF31F40835F5FE5CF8093E106C12F19
:1005C000911A292D2C0F822F90E0AC01495F5F4FCB
:1005D0004A155B0504F5C85F6C2F70E0C7017FDF2B
:1005E0004091E1068091E20686958695869590E099
:1005F00020E0322F340FD21659F0FC0158E0359F1D
:10060000E00DF11D1124E551F94F00832F5FF1CF6B
:100610003093E106D6CF2C15C0F5A81AB90A8FEF92
:1006200090E001C0880FAA94EAF7D82FD0956C2FDC
:1006300070E0685F7F4FC70152DF6091E106209153
:10064000E20626952695269530E050E07D2F7095A0
:10065000852F860FD516B9F048E0849FC00111247C
:10066000FC01E551F94FE20FF31F40810F3F11F4F8
:100670004D2B01C047238551994FFC01E20FF31F19
:1006800040835F5FE5CF8093E106DF91CF911F91BB
:100690000F91FF90EF90DF90CF90BF90AF909F9021
:1006A0000895D09AD19AD29AD39AD49AD59AD69AB2
:1006B000D79ABC9ABD9ABA9AB89AB99ABB9AC29874
:1006C000C198C098C3988FE19EE40197F1F700C0EC
:1006D0000000C39A9FEF20E782E0915020408040C5
:1006E000E1F700C0000062E08FE366DE62E080ECCC
:1006F00063DE60E070E080E090E0F1DEE1EEF6E0E5
:1007000081E08283178216821582118210820895F9
:1007100090E0E92FE695E695E695F0E0E551F94F92
:1007200020E080832F5F38962038D9F7985F903487
:1007300081F708958091E306813019F08FEF90E002
:1007400002C080E090E0E4CF1092710088E48093D2
:100750007000089594EA909374009091740097FF4C
:10076000FCCF90917100987F903191F48093730049
:1007700084E8809374008091740087FFFCCF80919F
:100780007100887F803431F0803231F083E0089549
:1007900080E0089581E0089582E0089584E98093DF
:1007A00074008091740084FDFCCF08951F93CF9353
:1007B000DF93C82FD4EA14E8D093740080917400BA
:1007C00087FFFCCF80917100887F8830A9F7C093A4
:1007D0007300109374008091740087FFFCCF8091A8
:1007E0007100887F883111F0D9DFE6CFDF91CF919A
:1007F0001F9108958093730084E880937400809122
:10080000740087FFFCCF80917100887F883221F0CF
:10081000803321F082E0089580E0089581E008951A
:1008200084EC809374008091740087FFFCCF8091EA
:100830007300089584E8809374008091740087FFAA
:10084000FCCF8091730008952FEF82E597E021504F
:1008500080409040E1F700C0000080EDA7DF89E113
:10086000C9DF87E0C7DF9ADF80EDA0DF8BE6C2DF5C
:1008700081E0C0DF93DF80ED99DF8AE1BBDF80E0BC
:10088000B9DF8CDF80ED92DF8BE1B4DF88E1B2DF8E
:1008900085DF80ED8BDF88E3ADDF81E0ABDF7ECFEE
:1008A00080ED84DF8BE3A6DF81ED54CFCF93F8DFBB
:1008B000B7DFC82FB5DF6C2F70E0762F6627682B67
:1008C000072E000C880B990BEFD36093230B7093CA
:1008D000240B8093250B9093260BA2DFC82FA0DF5B
:1008E0006C2F70E0762F6627682B072E000C880B84
:1008F000990BDAD360937706709378068093790624
:1009000090937A068DDFC82F8BDF6C2F70E0762FE7
:100910006627682B072E000C880B990BC5D36093B4
:10092000020670930306809304069093050678DF11
:10093000C82F76DF6C2F70E0762F6627682B072E86
:10094000000C880B990BB0D36093730670937406F8
:10095000809375069093760663DFC82F61DF6C2F56
:1009600070E0762F6627682B072E000C880B990BFA
:100970009BD360936F06709370068093710690937B
:1009800072064EDFC82F4CDF6C2F70E0762F662783
:10099000682B072E000C880B990B86D36093600B95
:1009A0007093610B8093620B9093630B39DFC82FB8
:1009B00041DF6C2F70E0762F6627682B072E000C26
:1009C000880B990B71D36093EB0A7093EC0A8093B8
:1009D000ED0A9093EE0ACF91E1CE68DF20E030E09F
:1009E00040E858E36091230B7091240B8091250B14
:1009F0009091260B0DD460933B0B70933C0B80932E
:100A00003D0B90933E0B20E030E040E858E36091CE
:100A10007706709178068091790690917A06F8D3DE
:100A20006093440B7093450B8093460B9093470B58
:100A300020E030E040E858E3609102067091030640
:100A40008091040690910506E3D36093520B709356
:100A5000530B8093540B9093550B089587B7816087
:100A600087BF11BE83B7826083BF88E882BF0895C5
:100A700087B7806487BF13BC83E085BD86E084BDF3
:100A800008951F920F920FB60F9211242F933F9348
:100A90008F939F9388E882BF8091EC059091ED053C
:100AA000019741F58091E8059091E90501969093B1
:100AB000E9058093E8052091EE053091EF05821756
:100AC00093070CF41D9A2091E8053091E905809177
:100AD000EE059091EF05281739070CF01D988091CD
:100AE000E8059091E9058039914024F01092E905DC
:100AF0001092E8059F918F913F912F910F900FBE1B
:100B00000F901F9018951F920F920FB60F921124FD
:100B10002F933F938F939F9386E084BD8091FC0534
:100B20009091FD050196803D27E092072CF490936B
:100B3000FD058093FC0504C01092FD051092FC0594
:100B40008091000690910106019749F48091F40587
:100B50009091F50501969093F5058093F4058091A9
:100B6000F4059091F505883E93400CF443C08091C4
:100B7000F6059091F70501968C33910529F0909335
:100B8000F7058093F6050DC01092F7051092F60553
:100B90008091F8059091F90501969093F90580935D
:100BA000F8058091F8059091F905CC9769F41092B9
:100BB000F9051092F8058091FA059091FB050196D0
:100BC0009093FB058093FA058091FA059091FB05BF
:100BD000489761F41092FB051092FA051092F905FE
:100BE0001092F8051092F7051092F6051092F5058F
:100BF0001092F4058091040190910501019749F448
:100C00008091E6059091E70501969093E705809322
:100C1000E6058091F0059091F105019739F58091F5
:100C2000EA059091EB0501969093EB058093EA0518
:100C30002091F2053091F305281739070CF0C79A77
:100C40002091EA053091EB058091F2059091F30532
:100C5000821793070CF4C7988091EA059091EB05F1
:100C6000449724F01092EB051092EA059F918F9122
:100C70003F912F910F900FBE0F901F9018958B9A58
:100C8000E6E0F1E08581809398008481809399006B
:100C900082E080939B0088E180939A0086E08093B5
:100CA0009D0080919C008093EA060895CF92DF9288
:100CB000EF92FF92CF93DF9390DE20E030E040E8A8
:100CC0005FE36091440B7091450B8091460B9091CE
:100CD000470B9AD2181664F480E090E0A0E8BFE3D6
:100CE0008093440B9093450BA093460BB093470B16
:100CF00020E030E040E85FEB6091440B7091450BE1
:100D00008091460B9091470B98D187FF0CC080E0F3
:100D100090E0A0E8BFEB8093440B9093450BA09329
:100D2000460BB093470B20E030E040E85FE3609172
:100D3000520B7091530B8091540B9091550B64D2D0
:100D4000181664F480E090E0A0E8BFE38093520BB3
:100D50009093530BA093540BB093550B20E030E0CD
:100D600040E85FEB6091520B7091530B8091540BF4
:100D70009091550B62D187FF0CC080E090E0A0E815
:100D8000BFEB8093520B9093530BA093540BB093F3
:100D9000550B20E030E048EC52E46091440B709138
:100DA000450B8091460B9091470B32D24AD16B0193
:100DB0007C01EB0120E030E048EC52E46091520B02
:100DC0007091530B8091540B9091550B21D239D1D6
:100DD0009B01F601D7FE04C0EE27FF27EC19FD09A1
:100DE000AB0137FF04C044275527461B570BE417B8
:100DF000F50744F0D7FD03C083E090E00AC084E02B
:100E000090E007C037FD03C081E090E002C082E0BF
:100E100090E09093E5058093E405DF91CF91FF90FA
:100E2000EF90DF90CF9008958FEF87BB14BA82B90F
:100E30001E9867E973E08FEE9AE04DD264EA73E0A2
:100E40008CEF9AE048D261EB73E089E09BE043D2FB
:100E50006EEB73E086E19BE03ED27894FFDD08DE26
:100E60000EDF1FDC67DC8CE890E09093E506809352
:100E7000E40685E08093E60688E08093E70681E05B
:100E80008093E8068093E90683B113B8F3DA1092F1
:100E9000FF051092FE051092F1051092F0051092D8
:100EA000ED051092EC05C798C69883B113B84CDCD9
:100EB000CBDCFCDE8091E4059091E5058230910564
:100EC00071F11CF4019749F095C08330910509F444
:100ED0004CC0049709F46AC08DC0809100019091C4
:100EE00001018E3391052CF40196909301018093BA
:100EF000000180910001909101018E3391052CF445
:100F000001969093010180930001809100019091DE
:100F100001018E3391050CF06DC0019621C08091C6
:100F2000000190910101823091052CF0019790937E
:100F300001018093000180910001909101018230B4
:100F400091052CF00197909301018093000180910D
:100F5000000190910101823091050CF44BC0019782
:100F6000909301018093000145C08091020190910E
:100F70000301823091052CF0019790930301809337
:100F800002018091020190910301823091052CF0C1
:100F90000197909303018093020180910201909147
:100FA00003018230910534F1019720C08091020144
:100FB000909103018E3791052CF4019690930301D3
:100FC0008093020180910201909103018E37910577
:100FD0002CF4019690930301809302018091020109
:100FE000909103018E3791052CF4019690930301A3
:100FF00080930201609100018091020121E0260F9F
:1010000041E0480F61500FEF81506FDA33DA2FEF74
:1010100087E893E1215080409040E1F700C0000054
:10102000609100018091020121E0260F41E0480F0C
:10103000615000E0815059DA3CCF71D008F481E072
:10104000089504D06894B111D9C00895BCD088F037
:101050009F5790F0B92F9927B751A0F0D1F0660FA4
:10106000771F881F991F1AF0BA95C9F712C0B130BF
:1010700081F0C3D0B1E00895C0C0672F782F8827D2
:10108000B85F39F0B93FCCF3869577956795B395FE
:10109000D9F73EF490958095709561957F4F8F4F6D
:1010A0009F4F0895E89409C097FB3EF49095809572
:1010B000709561957F4F8F4F9F4F9923A9F0F92F1E
:1010C00096E9BB279395F695879577956795B7959C
:1010D000F111F8CFFAF4BB0F11F460FF1BC06F5F82
:1010E0007F4F8F4F9F4F16C0882311F096E911C094
:1010F000772321F09EE8872F762F05C0662371F0B5
:1011000096E8862F70E060E02AF09A95660F771FC8
:10111000881FDAF7880F9695879597F90895990FA4
:101120000008550FAA0BE0E8FEEF16161706E807B1
:10113000F907C0F012161306E407F50798F0621BD2
:10114000730B840B950B39F40A2661F0232B242BA7
:10115000252B21F408950A2609F4A140A6958FEFC6
:10116000811D811D089597F99F6780E870E060E018
:1011700008959FEF80EC089500240A941616170630
:1011800018060906089500240A9412161306140678
:1011900005060895092E0394000C11F4882352F0DB
:1011A000BB0F40F4BF2B11F460FF04C06F5F7F4F93
:1011B0008F4F9F4F089557FD9058440F551F59F07A
:1011C0005F3F71F04795880F97FB991F61F09F3F34
:1011D00079F087950895121613061406551FF2CF5D
:1011E0004695F1DF08C0161617061806991FF1CFAD
:1011F00086957105610508940895E894BB276627D4
:101200007727CB0197F908958ADF08F48FEF0895C7
:101210000BD0C0CFB1DF28F0B6DF18F0952309F06E
:10122000A2CFA7CF1124EACFC6DFA0F3959FD1F3B9
:10123000950F50E0551F629FF001729FBB27F00D84
:10124000B11D639FAA27F00DB11DAA1F649F6627D9
:10125000B00DA11D661F829F2227B00DA11D621F28
:10126000739FB00DA11D621F839FA00D611D221FE2
:10127000749F3327A00D611D231F849F600D211DC6
:10128000822F762F6A2F11249F5750408AF0E1F069
:1012900088234AF0EE0FFF1FBB1F661F771F881FB2
:1012A00091505040A9F79E3F510570F05CCFA6CFFA
:1012B0005F3FECF3983EDCF3869577956795B7959D
:1012C000F795E7959F5FC1F7FE2B880F911D9695C7
:1012D000879597F90895FB01DC0101900D9200209C
:0812E000E1F70895F894FFCF37
:1012E8001F003F000A004003A001CF008A006700EA
:1012F8004400330022001900100008000700030012
:1013080001000000576F726420536B696C6C732086
:101318003230313800536D617274204661726D202D
:101328004D616E61676572004E6F7720496E697412
:1013380069616C697A696E672E2E2E006D6178007E
:101348006D696E007365745F74656D703A007365DE
:10135800745F68756D693A007365745F6C75783A87
:1013680000506F7765722053657474696E67204DFD
:101378006F646500536572766F0046616E00477949
:10138800726F004F6E004F66660054696D6520539A
:10139800657474696E670025303264000D0C0A208C
:1013A80020202020202020202020202020202073E2
:1013B80077323A4572725F4C6F670A0A0D7377315C
:1013C8003A542F482047726170682020207377357F
:1013D8003A54696D652F6469762020207377333A13
:1013E8004C2047726170680A0A0D202020202020B6
:1013F800202020202020202020207377343A56698E
:1014080067696C204D6F64000A0A0D202020202097
:10141800202020202020202020202D56696577209C
:101428004572726F72204C6F672D004572725F4F64
:101438007665725F4D6178004572725F4F766572AE
:101448005F4D696E0053656E736F723A0054656D37
:10145800700048756D690073746172745F74696DAA
:10146800653A00656E645F74696D653A002D56696A
:101478006577204572726F72204C6F67200054693F
:101488006D652F6469762053657474696E670031E1
:101498002E35732F2000302E31732F2000205069F5
:1014A80078656C005B7377355D204261636B2074EF
:1014B8006F204772617068004E6F772053617669BC
:1014C8006E6700506C6561736520776169742E2EB4
:1014D8002E00496E74727573696F6E004465746589
:1014E80063746564212121002D7377352D204261B5
:1014F800636B20746F206772617068002564005602
:101508006967696C616E6365204D6F646500536F30
:10151800756E642056616C75653A004C696768742D
:101528002056616C75653A004D61785F536F756E32
:10153800643A000D0C5065737469636964652043EF
:101548006F6F6C657220436F6E74726F6C2E2E2EE7
:10155800000A0A0D20202020202020202020000A18
:101568000A0D616E676C653A00250025332E3166D9
:1015780000436F64653A0054656D5F4F7665725F2E
:101588004D61780054656D5F4F7665725F4D696E89
:101598000048756D5F4F7665725F4D6178004875DC
:1015A8006D5F4F7665725F4D696E000A0A0D2020E7
:1015B800202020202020202020202020204572725A
:1015C8006F72204465746563746564210A0D202078
:1015D80020202020202020202020204E6F7720410E
:1015E80075746F2D576F726B696E672E2E2E2E00D5
:1015F800446F6F72204F70656E3A004865617420C1
:101608004C6576656C3A2031203220332034203501
:101618000046616E2053706565643A004572726FCA
:10162800723A0054656D7065726174757265002058
:101638002048756D75646974792000526571756903
:1016480072652050726F70657220576F726B2E0032
:101658000A0D542F48204772617068000A0D542FF4
:101668006469763A20312E355365632F000A0D6D73
:10167800617874656D3D000A0D6D696E74656D3D28
:10168800000A0D6D617868756D3D000A0D6D696E13
:1016980068756D3D000A0D4C204772617068000A3C
:1016A8000D542F6469763A20302E315365632F002C
:1016B8000A0D6D61786C75783D000A0D6D696E6C68
:1016C80075783D000D0C0A313A4D61782F4D696EE1
:1016D8002053657474696E670A0D323A506F7765E6
:1016E800722053657474696E670A0D522B333A542D
:1016F800696D6520526573657420616E642052655A
:101708002D73657474696E672074696D650A0D00C0
:1017180074656D3A0068756D3A0053656C6563745D
:10172800204D6F643A007377313A53657474696E6B
:1017380067204D6F6465007377333A4F7065726147
:1017480074696F6E204D6F64650054656D702F4825
:10175800756D69204772617068004C69676874200C
:1017680047726170680050657374696369646520C5
:101778004D6F6465000D0C006C6F6164696E672EB7
:101788002E2E002020202020206F6B000D0A76616D
:101798006C75652073657474696E672E2E2E000D46
:1017A8000A74696D652073657474696E672E2E2ED0
:1017B800000D0A506F7765722073657474696E67DF
:0417C8002E2E2E0093
:00000001FF
