:10000000F5C1000012C2000010C200000EC20000C4
:100010000CC200000AC2000008C2000006C20000B4
:1000200004C2000002C200000C94BC0CFEC100001F
:10003000FCC10000FAC10000F8C10000F6C10000D8
:100040000C947A0CF2C10000F0C10000EEC1000077
:10005000ECC10000EAC10000E8C10000E6C10000F8
:10006000E4C10000E2C10000E0C10000DEC1000008
:10007000DCC10000DAC10000D8C10000D6C1000018
:10008000D4C10000D2C10000D0C1000005A84CCDF1
:10009000B2D44EB93836A9020C50B9918688083CC2
:1000A000A6AAAA2ABE000000803F6E616E00696E9B
:1000B000660000407A10F35A00A0724E1809001032
:1000C000A5D4E80000E87648170000E40B540200CD
:1000D00000CA9A3B000000E1F505000080969800F8
:1000E000000040420F000000A08601000000102721
:1000F00000000000E80300000000640000000000B1
:100100000A00000000000100000000002C76D888E2
:10011000DC674F0823DFC1DFAE59E1B1B796E5E3F5
:10012000E453C63AE651997696E8E6C28426EB890E
:100130008C9B62ED407C6FFCEFBC9C9F40F2BAA5AB
:100140006FA5F490055A2AF75C936B6CF9676DC143
:100150001BFCE0E40D47FEF520E6B500D0ED902E47
:100160000300943577050080841E080000204E0AA5
:10017000000000C80C333333330F986E12831141E3
:10018000EF8D2114893BE65516CFFEE6DB18D184AE
:100190004B381BF77C1D901DA4BBE42420328472D5
:1001A0005E228100C9F124ECA1E53D270500000095
:1001B00000000500005F00000500070007000504BF
:1001C0000C1C0C0405808080808005231308646269
:1001D00005364956205005080703000005001C227B
:1001E0004100050041221C000514083E08140508C2
:1001F000083E08080500B070000005080808080857
:10020000050060600000052010080402053E514909
:10021000453E0500427F4000057249494946052197
:1002200041494D33051814127F10052745454539BE
:10023000053C4A494931054121110907053649491B
:10024000493605464949291E0500001400000500ED
:1002500040340000051C3E3E3E1C051414141414CA
:10026000051C2222221C0502015909060510181C32
:100270001810057C1211127C057F49494936053E4C
:1002800041414122057F4141413E057F494949495C
:10029000057F09090909053E41415173057F080899
:1002A000087F0500417F4100052040413F01057F57
:1002B00008142241057F40404040057F020C027F28
:1002C000057F0408107F053E4141413E057F090935
:1002D0000906053E4151215E057F0919294605267B
:1002E000494949320501017F0101053F4040403F36
:1002F000051F2040201F053F4038403F056314087C
:10030000146305030478040305615149454305005E
:100310007F414100050204081020050041417F0093
:1003200005000609090605404040404005070B004E
:100330000000052054547840057F2844443805388F
:100340004444442805384444287F053854545418FC
:100350000500087E09020518A4A49C78057F0804FE
:1003600004780500447D4000052040403D00057FA5
:10037000102844000500417F4000057C0478047883
:10038000057C0804047805384444443805FC1824E6
:1003900024180518242418FC057C080404080548C2
:1003A000545454240504043F4424053C4040207C1C
:1003B000051C2040201C053C4030403C05442810D2
:1003C0002844054C9090907C054464544C440500AE
:1003D000083641000500007700000500413608009E
:1003E00005040204080405007F417F0011241FBE9C
:1003F000CFEFD0E1DEBFCDBF15E0A0E0B1E0E0E996
:10040000F2E600E00BBF02C007900D92A63FB107D5
:10041000D9F72BE0A6EFB5E001C01D92A23CB207D0
:10042000E1F70E946C280C944631EACD811103C09B
:10043000C598C49A0895813019F4C498C59A08954E
:10044000C49AC59A0895F2DFD798C298C19AC09805
:1004500085E08A95F1F70000C09A95E09A95F1F74A
:10046000000089B3C0989AE29A95F1F700C08823FA
:100470009CF3C198D79A089580FF02C0D89A01C012
:10048000D89881FF02C0D99A01C0D99882FF02C0D2
:10049000DA9A01C0DA9883FF02C0DB9A01C0DB98C8
:1004A00084FF02C0DC9A01C0DC9885FF02C0DD9A9F
:1004B00001C0DD9886FF02C0DE9A01C0DE98882365
:1004C00014F4DF9A01C0DF98C09A85E08A95F1F7AD
:1004D0000000C09885E08A95F1F700000895CF9359
:1004E000DF93D82FC62F623019F0862FACDF04C0FF
:1004F00080E0A9DF81E0A7DF8C2F98DF85E38A9574
:10050000F1F70000C29885E38A95F1F70000C198E1
:100510008D2FB2DFDF91CF910895CF93DF93D82F46
:10052000C62F623019F0862F8EDF04C080E08BDF8B
:1005300081E089DF8C2F7ADFC29A85E38A95F1F713
:100540000000C19885E38A95F1F70000809141078A
:100550008130B1F08D2F80958FDFEFE3F7E0808160
:1005600091E0980F9083903429F48F5361E0806478
:10057000B6DF11C099237CF48FE780933F070BC04F
:100580008D2F7ADFEFE3F7E0808191E0980F908381
:10059000903481F7EACFDF91CF910895882314F04A
:1005A00080933F07089590914007903410F4809312
:1005B00040070895CF92DF92EF92FF920F931F931F
:1005C000CF93DF93D12C0FE317E0C12CFF24F394DA
:1005D000EC2CF801C0826C2D80E481DFFFE3FD1577
:1005E00050F1F801D18262E08D2D86958695869531
:1005F000886B75DF20C06F2DC03408F46E2DF801B4
:100600008181869586958695FE01EE0FFF1FEE0F80
:10061000FF1FEE0FFF1FE75BF84FE80FF11D808112
:100620007CDF2196C038D10531F7F8E0DF0E80E499
:10063000D812CFCF03C0C0E0D0E0DDCFDF91CF91A3
:100640001F910F91FF90EF90DF90CF900895CF937F
:10065000C62FA4DF8C2FA7DFCF910895CF93DF9310
:10066000C62FD42F70E090E0F2DFEFE3F7E02081B7
:1006700030E0818186958695869590E0F901EE0FB0
:10068000FF1FEE0FFF1FEE0FFF1FE75BF84FE80F96
:10069000F91FE081DF3F71F4C77041E050E060E096
:1006A00070E004C0440F551F661F771FCA95D2F72C
:1006B0004E2B0EC0C77041E050E060E070E004C017
:1006C000440F551F661F771FCA95D2F740954E23DA
:1006D000220F331F220F331F220F331F275B384F88
:1006E000F901E80FF91F4083DF91CF9108956F92D0
:1006F0007F928F929F92AF92BF92CF92EF92FF9292
:100700000F931F93CF93DF9388230CF4E5C044230A
:100710000CF4E2C0603408F0DFC0203408F0DCC024
:100720002F5F922E961A4F5FB42EB81A962F97709D
:10073000862E891AE92CF12C28E030E0291B31099A
:10074000E216F3066CF448E050E04E195F092FEF13
:1007500030E002C0359527954A95E2F7A92C04C0F0
:1007600028E0A22EA91A2FEFC02F022F10E002C0FE
:10077000000F111F9A95E2F7C02E682E712C682D7C
:1007800070E0C30164DFBB2009F453C0EFE3F7E07E
:100790002081418146954695469550E06B2D620F2C
:1007A0000095822F90E0FC01EE0FFF1FEE0FFF1F60
:1007B000EE0FFF1FE75BF84FE40FF51F3081CF3FCF
:1007C00011F43C2901C03023FC01EE0FFF1FEE0F96
:1007D000FF1FEE0FFF1FE75BF84FE40FF51F30839D
:1007E0002F5F6213DECF60933F0723C0D85F6D2F6A
:1007F00070E0C3012CDFBB2001F1F8012081818171
:1008000086958695869590E0322F3B0DE22FF0E09D
:10081000EE0FFF1FEE0FFF1FEE0FFF1FE75BF84FFE
:10082000E80FF91FC0832F5F3213F0CFF801308338
:1008300004C0D82DA8180FE317E08A2D8D0F282F9C
:1008400030E0A901485F5F4FE416F5067CF6891594
:1008500008F042C0E21AF30A8FEF90E002C0880F5E
:10086000991FEA94E2F7182F10956D2F70E0685FDA
:100870007F4FC301ECDEBB2079F1EFE3F7E040816D
:10088000218126952695269530E0B40E612F60953E
:10089000842F90E0FC01EE0FFF1FEE0FFF1FEE0F05
:1008A000FF1FE75BF84FE20FF31F5081CF3F11F4BA
:1008B000512B01C05623FC01EE0FFF1FEE0FFF1F4F
:1008C000EE0FFF1FE75BF84FE20FF31F50834F5F00
:1008D000B412DECFB0923F07DF91CF911F910F91FD
:1008E000FF90EF90CF90BF90AF909F908F907F90B0
:1008F0006F900895D09AD19AD29AD39AD49AD59AD1
:10090000D69AD79ABC9ABD9ABA9AB89AB99ABB9A0B
:10091000C298C198C098C3988FE19EE40197F1F7FF
:1009200000C00000C39A9FEF20E782E09150204072
:100930008040E1F700C0000062E08FE3D0DD62E0BC
:1009400080ECCDDD60E070E080E090E080DEEFE301
:10095000F7E081E08283178216821582118210826D
:1009600008958830D8F4682F70E0660F771F660FFF
:10097000771F660F771F80E090E069DE8091400767
:1009800086958695869590E0FC01E75BF84F875B3E
:10099000944F10823896E817F907D9F708959F9277
:1009A000AF92BF92CF92DF92EF92FF920F931F937D
:1009B000CF93DF93C82FD62F042F88230CF492C037
:1009C00044230CF48FC0603408F08CC0203408F04D
:1009D00089C084130AC0261710F4D22F262F0FEFD8
:1009E0004C2F6D2F8C2F83DE7DC062130CC04817F7
:1009F00010F4C42F082F4FEF6D2F8C2F2FDECF5FF9
:100A00000C17C8F76FC0261728F4E62EF12CE21A4F
:100A1000F10804C0E22EF12CE61AF1080C1778F464
:100A2000CC2ED12CC01AD108CE14DF040CF43FC058
:100A30008D2FD22F282F8C2FC02F082F08C0C02E0B
:100A4000D12CCC1AD108CE14DF040CF442C0A02E55
:100A5000AC1AD21738F4B22EBD1A1A2D1695992455
:100A6000939406C0BD2EB21A1A2D169599249A9405
:100A70000C17C0F1CE14DF042CF44FEF6C2F8D2F28
:100A8000EDDD04C04FEF6D2F8C2FE8DD1B1912F444
:100A9000D90D1A0DCF5F0C1768F724C0AD2EA21A1E
:100AA0008D2FD02F082F8C2FC22F282FD4CF2D176A
:100AB000A8F3802F022F282F8C2FCD2FD82FC7CF10
:100AC000AD2EA21A8D2FD02F082F8C2FC22F282F9A
:100AD000C9CF2D17A8F3802F022F282F8C2FCD2FB1
:100AE000D82FB5CFDF91CF911F910F91FF90EF904D
:100AF000DF90CF90BF90AF909F900895EF92FF92BC
:100B00000F931F93CF93DF9388230CF443C04423A8
:100B10000CF440C0603408F03DC0203408F03AC006
:100B2000122FE42ED62FF82E4817E0F4082FC42FEA
:100B30004FEF6D2F8C2F92DDCF5F0C17C8F7EF149E
:100B4000A0F40F2DCE2D4FEF612F8C2F87DDCF5FBF
:100B50000C17C8F71D1760F014C00FEF4E2D8E2D27
:100B6000C6DD18C0042FC82FE3CF0E2DCF2DEBCF3D
:100B70000FEF2D2F4F2D612F8F2DB9DD2D2F612FD1
:100B8000ECCF0FEF212F4F2D6D2F8F2DB0DD212FAB
:100B90006D2FE3CFDF91CF911F910F91FF90EF90D9
:100BA00008957F928F929F92AF92BF92CF92DF92E1
:100BB000EF92FF920F931F93CF93DF93242F30E098
:100BC000F901E80FF11DE038F1050CF060C0F90102
:100BD000E60FF11DE034F1050CF059C0862E982E79
:100BE000220F331F81E090E06C01C21AD30AC42F98
:100BF000AA24A394B12CE12CF12CD0E0082D0D0FE8
:100C00004FEF602F192D1C0F812F28DD4FEF602F24
:100C1000092D0C1B802F22DD782C7D1A4FEF672DBC
:100C2000802F1CDD4FEF672D812F18DD092D0D0F53
:100C30004FEF182D1C0F612F802F10DD792C7D1A9E
:100C40004FEF612F872D0ADD4FEF182D1C1B612FF1
:100C5000872D04DD4FEF612F802F00DDDF5FEA0C71
:100C6000FB1C82E0A80EB11C9701220F331F2C0D34
:100C70003D1D1216130644F4C150C9018E199F0977
:100C80007C0192E0C90ED11CCD1708F0B7CFDF91DF
:100C9000CF911F910F91FF90EF90DF90CF90BF9079
:100CA000AF909F908F907F90089590E008C08083D0
:100CB0003896E217F307D9F7985F903459F0292F47
:100CC00026952695269530E0F901E75BF84F275BDE
:100CD000344FEDCF089580914107813019F08FEFA7
:100CE00090E002C080E090E0E0CF08950F930FEF16
:100CF000FEDC0F9108956F927F929F92AF92BF9208
:100D0000CF92EF92FF920F931F93CF93C42EC81AE6
:100D1000AA24A394AC0C922E961A9394962F9770B3
:100D2000F62EF91A092D10E028E030E0291B3109D0
:100D3000021713076CF448E050E0401B510B2FEFF3
:100D400030E002C0359527954A95E2F7B92C04C0EA
:100D500028E0B22EB91A2FEFE22E01C0EE0C9A95C0
:100D6000EAF7682E712C6F2D70E0C30170DCAA20A9
:100D700009F446C0EFE3F7E0818186958695869574
:100D800090E0208141E0420F4C0DE22FF0E0EE0FA9
:100D9000FF1FEE0FFF1FEE0FFF1FE75BF84FE80F7F
:100DA000F91F30813E2530832F5F2413EECF40930F
:100DB0003F0726C0C85F6C2F70E0C30148DCAA2043
:100DC00039F1F701818186958695869590E020819D
:100DD00041E0420F4C0DE22FF0E0EE0FFF1FEE0F4F
:100DE000FF1FEE0FFF1FE75BF84FE80FF91F308181
:100DF000309530832F5F2413EECFF701408308C076
:100E0000CF2DBF180F2EFFE3EF2EF7E0FF2EF02DB2
:100E10008B2D8C0F282F30E0A901485F5F4F0417FE
:100E2000150744F6891590F5021B130B8FEF90E020
:100E300002C0880F991F0A95E2F7182F10956C2FA2
:100E400070E0685F7F4FC30102DCAA20F9F0EFE396
:100E5000F7E0218126952695269530E0808191E066
:100E6000980FC90EE82FF0E0EE0FFF1FEE0FFF1FE7
:100E7000EE0FFF1FE75BF84FE20FF31F9081912702
:100E800090838F5F8C11EECFC0923F07CF911F915F
:100E90000F91FF90EF90CF90BF90AF909F907F9079
:100EA0006F9008956623DCF04034C8F4EFE3F7E078
:100EB000948383836583468350E041505109CA017E
:100EC00099230CF407969595879595958795959513
:100ED00087958F5F8093460781E080934707089549
:100EE0002F923F924F925F926F927F928F929F923A
:100EF000AF92BF92CF92DF92EF92FF920F931F9328
:100F0000CF93DF93CDB7DEB728970FB6F894DEBF47
:100F10000FBECDBFEFE3F7E000810C8301810B83AF
:100F200057802581259D900111242F5F3F4F8052CE
:100F3000829FA001839F500D11245E834D83038007
:100F4000F481E02DE40FF51F64908C81860D22F46E
:100F500080E8682E0C81601A8B818695869586952F
:100F6000952D980F993018F098E0592E581A0B814A
:100F70000770A02E552009F46BC12D813E817B8026
:100F800010E05C81452F50E05A8349830F2EFFE328
:100F90008F2EF7E09F2EF02D88E090E01C01201AA4
:100FA000310838872F83D52CB980CA80672D70E02F
:100FB00089819A814CDB4F8058848FEF481A580AF8
:100FC000662009F462C0D40113966D917C91149748
:100FD00017962C91179730E01896EC901897119669
:100FE0004C91119746954695469550E00C91CB0152
:100FF000840D951DF02EF60CE12F1E2DEE2EFC011A
:10100000A491EA2FF0E0DF010A2C02C0AA0FBB1F57
:101010000A94E2F7EA2FEE2099F0EF81F885E60FC7
:10102000F71FE491F0E0022C02C0F595E7950A94D1
:10103000E2F7EA2BAF81B885A20FB31FB887AF8361
:10104000113071F4A02FB0E0AA0FBB1FAA0FBB1F75
:10105000AA0FBB1FA75BB84FA40FB51FFC91EF2BC6
:10106000A02FB0E0AA0FBB1FAA0FBB1FAA0FBB1F68
:10107000A75BB84FA40FB51FEC930F5F820F931FB0
:10108000F012BDCF1E2DF401F082D40118968C9180
:101090001897882399F0EC91F0E011968C91869541
:1010A00086958695EE0FFF1FEE0FFF1FEE0FFF1FB9
:1010B000E75BF84FE80FF11D908101C090E0D4018B
:1010C000EC91F0E011968C91869586958695EE0FC1
:1010D000FF1FEE0FFF1FEE0FFF1FE75BF84FE80F3C
:1010E000F11D9083B8E07B0E1F5F58864F82D112AE
:1010F0005BCF8FE18D0D682F660F660F660F8B81BA
:10110000885F860FE1E0ED1508F0A2C0682F70E05F
:101110008B2D9C2D9CDA8D819E818D0D911D6620DD
:1011200009F44CC0AFE3B7E06C9170E011964C91BC
:10113000119746954695469550E018961C9118973C
:101140009B01220F331F220F331F220F331F275BF8
:10115000384F240F351FF901F081FD8317962C912C
:10116000179730E01396ED91FC911497E80FF91F53
:101170001982A8E0B0E0AA19B109849190E00A2E82
:1011800002C0959587950A94E2F70D81802B113066
:1011900009F4802B99819F5F9983E20FF31F8D8360
:1011A0006912EBCF660F771F660F771F660F771FE9
:1011B000675B784FFB01E40FF51F80838091470741
:1011C000882369F18130A9F4AFE3B7E0EC91F0E056
:1011D00011968C91869586958695EE0FFF1FEE0FE2
:1011E000FF1FEE0FFF1FE75BF84FE80FF11D908127
:1011F00017C0AFE3B7E0EC91F0E011968C918695C3
:1012000086958695EE0FFF1FEE0FFF1FEE0FFF1F57
:10121000E75BF84FE80FF11D9081909501C090E0D9
:10122000AFE3B7E011968C911197EC9121E02E0F6E
:101230002C93F0E0869586958695EE0FFF1FEE0FB6
:10124000FF1FEE0FFF1FE75BF84FE80FF11D9083C4
:101250000B81602F70E0862D90E00C81800F911D36
:101260000196F5D928960FB6F894DEBF0FBECDBF14
:10127000DF91CF911F910F91FF90EF90DF90CF9072
:10128000BF90AF909F908F907F906F905F904F90A6
:101290003F902F9008950F931F93CF93DF93EC010E
:1012A00088818823D1F0EFE3F7E09081258130E059
:1012B000290F311D2038310584F421968F0109C092
:1012C000F8019081258130E0290F311D203831054A
:1012D00024F406DE89918111F3CFDF91CF911F9124
:1012E0000F9108951F93CF93DF93CDB7DEB72C975F
:1012F0000FB6F894DEBF0FBECDBF61157105810535
:10130000910519F480E3ECDD3AC1611571058105A1
:1013100020E8920709F433C1FE0131962CE0DF0189
:101320001D922A95E9F720E32B872A8729872887AA
:101330002F832E832D832C832B832A832983992328
:101340005CF49B01AC0188279927DC01821B930B7D
:10135000A40BB50B11E003C0DC01CB0110E0813020
:101360003AEC93073AE9A3073BE3B3078CF021E398
:1013700001C0232F9A5CAA49BB4331E0320F813070
:101380004AEC94074AE9A4074BE3B40794F72A838D
:10139000811551EE950755EFA50755E0B5078CF07F
:1013A00021E301C0232F915EA54FB54031E0320FFC
:1013B000811541EE940745EFA40745E0B40794F783
:1013C0002B83803856E9950758E9A507B1058CF0BD
:1013D00021E301C0232F80589649A849B10931E083
:1013E000320F803846E9940748E9A407B10594F71D
:1013F0002C83803452E495075FE0A507B1058CF09B
:1014000021E301C0232F80549244AF40B10931E061
:10141000320F803442E494074FE0A407B10594F7FB
:101420002D83803A56E8950751E0A507B1058CF069
:1014300021E301C0232F805A9648A140B10931E031
:10144000320F803A46E8940741E0A407B10594F7CB
:101450002E83803157E29507A105B10584F021E381
:1014600001C0232F80519742A109B10931E0320F09
:10147000803147E29407A105B1059CF72F83883E90
:1014800053E09507A105B10584F021E301C0232FA6
:10149000885E9340A109B10931E0320F883E43E0F4
:1014A0009407A105B1059CF7288784369105A1050D
:1014B000B1057CF021E301C0232F84569109A109D5
:1014C000B10931E0320F84369105A105B105A4F7C9
:1014D00029878A309105A105B10574F021E301C087
:1014E000232F0A97A109B10931E0320F8A30910503
:1014F000A105B105ACF72A87181619061A061B06AE
:101500000CF03BC0AC01BD014150510961097109AA
:10151000D9F7805D8B8731C0982F81E0890FE1E09A
:10152000F0E0EC0FFD1FE80FF11D20812033A1F347
:10153000112331F0FE01E90FF11D8DE28183892F26
:101540004AE0481B20E090E0E1E0F0E0EC0FFD1FF6
:10155000E20FF11DDF01A80FB91F3C9130832F5F0F
:10156000421790F7E1E0F0E0EC0FFD1FE20FF11DF4
:101570001082CE0101968FDE02C090E0CECF2C9675
:101580000FB6F894DEBF0FBECDBFDF91CF911F9194
:1015900008951092710088E480937000089594EA91
:1015A00090937400E4E7F0E090819923ECF7909138
:1015B0007100987F903199F48093730084E8809350
:1015C0007400E4E7F0E080818823ECF780917100FB
:1015D000887F803431F0803231F083E0089580E0FC
:1015E000089581E0089582E0089584E9809374006D
:1015F000E4E7F0E0808184FDFDCF0895BF92CF92B3
:10160000DF92EF92FF920F931F93CF93DF93B82E49
:10161000C4E7D0E00F2EF4EADF2EF02D01E710E052
:101620000F2EF3E7EF2EF12CF02D0F2EF4E8CF2E36
:10163000F02DD88288818823ECF7F8018081887F9B
:101640008830B9F7F701B082C88288818823ECF727
:10165000F8018081887F883111F0C7DFEACFDF9100
:10166000CF911F910F91FF90EF90DF90CF90BF909F
:1016700008958093730084E880937400E4E7F0E0B9
:1016800080818823ECF780917100887F883221F077
:10169000803321F082E0089580E0089581E008958C
:1016A00084EC80937400E4E7F0E080818823ECF719
:1016B00080917300089584E880937400E4E7F0E07B
:1016C00080818823ECF78091730008952FEF82E5E5
:1016D00097E0215080409040E1F700C0000080ED8D
:1016E0008DDF89E1C6DF87E0C4DF7FDF80ED86DF45
:1016F0008BE6BFDF81E0BDDF78DF80ED7FDF8AE151
:10170000B8DF80E0B6DF71DF80ED78DF8BE1B1DF3D
:1017100088E1AFDF6ADF80ED71DF88E3AADF81E077
:10172000A8DF63CF089580ED69DF8BE3A2DF81ED51
:1017300036CF0895CF93F7DFB3DFC82FB1DF6C2F1B
:1017400070E0762F6627682B072E000C880B990B0C
:101750000E94F7296093810B7093820B8093830B17
:101760009093840B9DDFC82F9BDF6C2F70E0762F4A
:101770006627682B072E000C880B990B0E94F7290F
:101780006093D5067093D6068093D7069093D806BB
:1017900087DFC82F85DF6C2F70E0762F6627682BD8
:1017A000072E000C880B990B0E94F72960936006A6
:1017B00070936106809362069093630671DFC82F71
:1017C0006FDF6C2F70E0762F6627682B072E000CDA
:1017D000880B990B0E94F7296093D1067093D2066B
:1017E0008093D3069093D4065BDFC82F59DF6C2F0C
:1017F00070E0762F6627682B072E000C880B990B5C
:101800000E94F7296093CD067093CE068093CF0691
:101810009093D00645DFC82F43DF6C2F70E0762F02
:101820006627682B072E000C880B990B0E94F7295E
:101830006093BE0B7093BF0B8093C00B9093C10B52
:101840002FDFC82F38DF6C2F70E0762F6627682BCC
:10185000072E000C880B990B0E94F7296093490B07
:1018600070934A0B80934B0B90934C0BBEDECF9141
:10187000089560DF20E030E040E858E36091810B9C
:101880007091820B8091830B9091840B0E94E42ACB
:101890006093990B70939A0B80939B0B90939C0B86
:1018A00020E030E040E858E36091D5067091D6061C
:1018B0008091D7069091D8060E94E42A6093A20BEB
:1018C0007093A30B8093A40B9093A50B089587B7F7
:1018D000816087BF11BE83B7826083BF88E882BF03
:1018E000089587B7806487BF13BC83E085BD86E019
:1018F00084BD08951F920F920FB60F9211242F935B
:101900003F938F939F9388E882BF80913006909198
:101910003106019741F580912C0690912D06019694
:1019200090932D0680932C06209132063091330639
:101930008217930764F41D9A20912C0630912D068E
:101940008091320690913306281739070CF01D98C4
:1019500080912C0690912D068039914024F01092B0
:101960002D0610922C069F918F913F912F910F90F1
:101970000FBE0F901F9018951F920F920FB60F92E7
:1019800011242F933F938F939F9386E084BD809182
:10199000490690914A060196803D27E092072CF473
:1019A00090934A068093490604C010924A0610920A
:1019B000490680915B0690915C06019749F48091FD
:1019C000380690913906019690933906809338062F
:1019D0008091380690913906883E93400CF443C0BC
:1019E00080913D0690913E0601968C33910529F039
:1019F00090933E0680933D060DC010923E061092D5
:101A00003D0680913F0690914006019690934006D6
:101A100080933F0680913F0690914006CC9769F4F1
:101A20001092400610923F06809141069091420626
:101A300001969093420680934106809141069091D1
:101A40004206489761F410924206109241061092A5
:101A5000400610923F0610923E0610923D061092EC
:101A6000390610923806809106019091070101977E
:101A700049F48091FA059091FB0501969093FB053E
:101A80008093FA058091340690913506019739F5D7
:101A900080912E0690912F06019690932F068093A9
:101AA0002E0620913606309137062817390764F044
:101AB000C79A20912E0630912F068091360690917C
:101AC0003706821793070CF4C79880912E069091E1
:101AD0002F06449724F010922F0610922E069F9105
:101AE0008F913F912F910F900FBE0F901F901895DF
:101AF0008B9AE6E1F1E08581809398008481809360
:101B0000990082E080939B0088E180939A0086E0B0
:101B100080939D0080919C00809348070895809158
:101B20009B0088231CF480919C00089580913A06C4
:101B30000895EBE9F0E0908195FFFDCF80939C0044
:101B40000895CF93DF93EC018991F3DF88818111B0
:101B5000FBCF85E08A95F1F70000DF91CF910895E2
:101B60008E9A96982FEF89EF90E021508040904018
:101B7000E1F700C00000969A08958E988699FECFEE
:101B8000869BFECF8699FECF089588E090E0869BE5
:101B9000FECF20EA2A95F1F7869B07C020915D06CB
:101BA000220F216020935D0605C020915D06220F63
:101BB00020935D068699FECF019749F780915D06D7
:101BC000089580E487B987E886B9089597B187704A
:101BD000982B97B9369A349BFECF349A84B195B13D
:101BE0000895CF93CCE010924A061092490668E01F
:101BF00070E080E190E00E94270386E391E04BDBF8
:101C000068E170E08AE090E00E94270387E491E0B9
:101C100042DB68E270E088E090E00E9427038AE5FA
:101C200091E039DB8091490690914A06883C910504
:101C3000F4F22CE34C2F65E386E058D80E94DA02D8
:101C4000C45FC43881F6CF91089545D860E070E054
:101C50008CE390E00E9427038EE691E01CDB60E0BD
:101C600070E080E690E00E94270382E791E013DBBA
:101C700060E170E080E090E00E94270386E791E059
:101C80000ADB60E170E08FE390E00E94270360913F
:101C9000100170911101072E000C880B990B22DBAB
:101CA00060E170E083E690E00E94270360910E01FE
:101CB00070910F01072E000C880B990B13DB60E26B
:101CC00070E080E090E00E94270380E891E0E3DA92
:101CD00060E270E08FE390E00E94270360910C01C6
:101CE00070910D01072E000C880B990BFBDA60E256
:101CF00070E083E690E00E94270360910A017091F2
:101D00000B01072E000C880B990BECDA60E370E0F6
:101D100080E090E00E9427038AE891E0BCDA60E36B
:101D200070E08FE390E00E942703609108017091BA
:101D30000901072E000C880B990BD4DA60E370E0E0
:101D400083E690E00E94270360915106709152064D
:101D5000072E000C880B990BC5DA0C94DA02089553
:101D60008F929F92AF92BF92CF92DF92EF92FF92AB
:101D70000F931F93CF93DF9314BA67DF8FE085BB78
:101D800028E14CE46EE08CE30E947E050E94DA02BA
:101D90000F2EF5E0EF2EF12CF02D0F2EFCE4AF2EE0
:101DA000B12CF02DCCE3D0E00F2EF8E1CF2ED12CCA
:101DB000F02D0EE010E083B3817083BB882329F0FF
:101DC00083B3847083BB811123C083B3817083BBD1
:101DD0008823D9F383B3847083BB8823B1F3CC33D6
:101DE000D10549F432DF0F2EF0E7AF2EB12CF02DE4
:101DF000C0E6D0E005C029DFA49724E2A21AB1080A
:101E00002C2D4A2D602F8C2F0E947E050E94DA0215
:101E100083B3827083BB81111FC083B3827083BB85
:101E20008823D9F30E30110549F40FDF0F2EF8E3A4
:101E3000CF2ED12CF02D0EE210E006C006DF0051AF
:101E4000110980E1C81AD1082C2D4A2D602F8C2F42
:101E50000E947E050E94DA0283B3887083BB8111E1
:101E60001FC083B3887083BB8823D9F30E3211055A
:101E700049F4EBDE0F2EF8E1CF2ED12CF02D0EE041
:101E800010E006C0E2DE005F1F4F20E1C20ED11C51
:101E90002C2D4A2D602F8C2F0E947E050E94DA0285
:101EA00083B3807183BB8823F1F024C010924A066B
:101EB0001092490683B3807183BB811107C0809162
:101EC000490690914A06883E9340A4F38FEFE81AA2
:101ED000F80A23E0E216F10441F483B3807183BB76
:101EE0008823D9F389C1E12CF12C83B3807183BBA2
:101EF0008823E1F283E0E816F1040CF05CCF8C2C2F
:101F00009A2CE02EFC2E2C2D4A2D602F8C2F0E9417
:101F10007B060E94DA0283B3827083BB811190C07A
:101F200083B3827083BB8823D9F3CC33D10509F006
:101F30003FC10E30110509F055C1809110019091FB
:101F40001101823391050CF04FC00196909311015D
:101F5000809310017ADE282D492D6E2D8F2D0E9441
:101F60007B0642C00E30110509F027C180910E0199
:101F700090910F01893191050CF01FC1019690934A
:101F80000F0180930E0161DE282D492D6E2D8F2DBE
:101F90000E947B0612C180910C0190910D018F353A
:101FA000910514F5019690930D0180930C014DDE7F
:101FB000282D492D6E2D8F2D0E947B0615C08091F6
:101FC0000A0190910B01823391050CF0FAC0019641
:101FD00090930B0180930A0138DE282D492D6E2D38
:101FE0008F2D0E947B06EDC00E32110539F58091D0
:101FF0000801909109018336910504F501969093AB
:1020000009018093080121DE282D492D6E2D8F2D89
:102010000E947B0613C08091510690915206823334
:10202000910564F4019690935206809351060DDE5B
:10203000282D492D6E2D8F2D0E947B060E94DA02DD
:1020400083B3887083BB81119AC083B3887083BBCC
:102050008823D9F3CC33D10509F0B8C00E3011056F
:1020600009F0C5C080911001909111018A3191054C
:102070000CF457C001979093110180931001E5DD96
:10208000282D492D6E2D8F2D0E947B060E94DA028D
:1020900048C00E30110509F09DC080910E0190914D
:1020A0000F01181619060CF095C0019790930F01B7
:1020B00080930E01CADD282D492D6E2D8F2D0E9493
:1020C0007B060E94DA0286C080910C0190910D017E
:1020D0008333910534F1019790930D0180930C01A6
:1020E000B4DD282D492D6E2D8F2D0E947B060E9478
:1020F000DA0217C080910A0190910B011816190697
:102100000CF06CC0019790930B0180930A019DDD48
:10211000282D492D6E2D8F2D0E947B060E94DA02FC
:102120005DC00E32110559F58091080190910901A9
:102130008333910524F1019790930901809308015D
:1021400084DD282D492D6E2D8F2D0E947B060E9447
:10215000DA0215C0809151069091520618161906A0
:1021600074F4019790935206809351066EDD282DEA
:10217000492D6E2D8F2D0E947B060E94DA0283B3BB
:10218000807183BB8111C7CE83B3807183BB8823E9
:10219000D9F35BDD282D492D6E2D8F2D0E947E05F4
:1021A0000E94DA020F2EF5E0EF2EF12CF02D03CE77
:1021B000C036D10509F042CFD5CE0E31110509F454
:1021C000FECE0E32110509F039CF25CFC036D1052C
:1021D000B1F65FCF0E31110509F48CCF0E32110527
:1021E00071F6B8CF0E31110509F0FECED4CE0E3106
:1021F000110509F096CF68CFDF91CF911F910F9114
:10220000FF90EF90DF90CF90BF90AF909F908F9016
:102210000895CF92DF92EF92FF920F931F93CF9387
:10222000DF930E946B06C0E0D0E001E010E0C12C1B
:10223000D12CEC2CFD2C83B3817083BB811109C0A0
:102240001C161D0634F483B3817083BB8823D9F335
:10225000219783B3847083BB811109C0C230D1053B
:1022600034F483B3847083BB8823D9F3219683B37A
:10227000827083BB81115AC083B3827083BB882371
:10228000D9F30E946B0620910201309103018091E5
:1022900004019091050140910001509101012097A6
:1022A00029F40097A1F4802F912F11C0C130D105DE
:1022B00031F42115310559F4202F312F08C0C230D7
:1022C000D10529F44115510511F4402F512F8130CA
:1022D000910569F4009304011093050150930101E5
:1022E0004093000130930301209302011FC021306D
:1022F000310569F490930501809304015093010125
:102300004093000100930201109303010FC041307C
:10231000510529F690930501809304010093000173
:1023200010930101309303012093020183B388705D
:1023300083BB81115AC083B3887083BB8823D9F3D0
:102340000E946B06209102013091030180910401EB
:10235000909105014091000150910101209731F4C5
:1023600081309105A1F48E2D9F2D11C0C130D10572
:1023700031F42130310559F42E2D3F2D08C0C230E3
:10238000D10529F44130510511F44E2D5F2D0097F0
:1023900069F4C0920401D092050150930101409369
:1023A000000130930301209302011FC02115310564
:1023B00069F49093050180930401509301014093C7
:1023C0000001C0920201D09203010FC041155105D6
:1023D00029F69093050180930401C0920001D092E8
:1023E0000101309303012093020183B3807183BB09
:1023F000811106C083B3807183BB8823D9F3C9C020
:10240000C130D10589F0C230D105D1F0209719F53E
:102410000E946B0660E170E080E190E00E9427037B
:1024200084E20E94700717C00E946B0660E170E0B2
:102430008AE390E00E94270384E20E9470070BC0A9
:102440000E946B0660E170E088E590E00E9427033F
:1024500084E20E9470076C2D7D2D8AE090E00E943E
:10246000270383E991E00E944B0960E170E080E17D
:1024700090E00E94270386EA91E00E944B0960E108
:1024800070E08AE390E00E9427038CEA91E00E94CA
:102490004B0960E170E088E590E00E94270380EB43
:1024A00091E00E944B0960E270E085E090E00E94BC
:1024B000270385EB91E00E944B0960E370E082E026
:1024C00090E00E94270388EB91E00E944B0928E3EB
:1024D00048E260E286E10E947E05809104019091CD
:1024E0000501019739F429E245E263E289E10E949E
:1024F000760606C025E345E26FE289E10E94760692
:1025000028E34BE460E289E30E947E0580910201AA
:1025100090910301019739F429E248E463E28CE3E6
:102520000E94760606C025E348E46FE28CE30E9431
:10253000760628E34DE660E28BE50E947E058091F9
:10254000000190910101019739F429E24AE663E222
:102550008EE50E94760606C025E34AE66FE28EE528
:102560000E9476060E94DA02809102019091030196
:10257000892B19F4BF98C79801C0BF9A80910401B4
:1025800090910501892B19F4BE98C69854CEBE9A35
:1025900052CEDF91CF911F910F91FF90EF90DF907E
:1025A000CF900895BCDA80933A068B3179F5B7DA8B
:1025B00080933A068B31D9F38B3541F5B0DA8093AD
:1025C0003A068B35D9F3813439F421E030E0309389
:1025D0003C0620933B0612C0823439F482E090E03E
:1025E00090933C0680933B060895843439F483E04D
:1025F00090E090933C0680933B060895833431F439
:1026000084E090E090933C0680933B0608952F92DF
:102610003F924F925F927F928F929F92AF92BF9222
:10262000CF92DF92EF92FF920F931F93CF93DF939E
:102630008EE290E00E94313190E09093FD0580930E
:10264000FC0500E010E00F2EF9ECEF2EF1E0FF2E7C
:10265000F02D0F2EF5EBCF2EFBE0DF2EF02D0F2E01
:10266000FAE37F2EF02D0F2EF8EBAF2EFBE0BF2EFE
:10267000F02D0F2EFBEB8F2EFBE09F2EF02D442430
:102680004394512C6894222422F8312C8091FC052B
:102690009091FD05019741F581E090E090935C06F3
:1026A00080935B0686E390E00E94313190E0909346
:1026B0003E0680933D068EE390E00E94313190E02B
:1026C0009093400680933F0686E490E00E9431316B
:1026D00090E0909342068093410684E690E09093C8
:1026E0003906809338060CC20E946B0668E070E0E1
:1026F0008CE190E00E9427038CEB91E00E944B0953
:10270000809142068F93809141068F93FF92EF92C2
:10271000DF92CF920E949530F6017282809140063E
:102720008F9380913F068F93FF92EF92BF92AF926B
:102730000E949530F601758280913E068F938091BC
:102740003D068F93FF92EF929F928F920E94953059
:1027500060E270E088E290E00E942703C6010E94D8
:102760004B098DB79EB742960FB6F8949EBF0FBE29
:102770008DBF023011050CF47FC1C801880F991F6D
:10278000800F911F880F991F60E270E08E960E9463
:102790002703043011056CF0A6C1C801880F991FEA
:1027A000800F911F880F991F60E270E088960E9449
:1027B000270384E20E947007CBE2D0E068E170E07A
:1027C000CE010E94270380E40E94700768E270E057
:1027D000CE010E94270383E20E9470076296C136F1
:1027E000D10561F70E94DA02DDDE83B3817083BB1D
:1027F00081110BC083B3817083BB8823D9F3E3E0DD
:10280000F0E0F0933C06E0933B0683B3827083BB19
:10281000811109C083B3827083BB8823D9F350929E
:102820003C0640923B0683B3847083BB811109C090
:1028300083B3847083BB8823D9F330923C06209203
:102840003B0683B3887083BB811108C083B3887053
:1028500083BB8823D9F382E090E017C080913B06C8
:1028600090913C068330910539F4101611060CF056
:1028700040C0015011093DC08430910531F405304C
:102880001105BCF50F5F1F4F34C08130910509F071
:10289000FCC00115110509F0F3C08091410690912B
:1028A00042068E3091050CF0EBC00A9690934206DA
:1028B00080934106E5C001151105D9F42091410628
:1028C000309142062A303105A4F02A503109309364
:1028D0004206209341060DC0809141069091420628
:1028E00087319105E4F40196909342068093410666
:1028F00016C08230910509F0D2C00130110509F0EF
:10290000C9C08091410690914206181619060CF034
:10291000C1C001979093420680934106BBC002302C
:102920001105F1F480913F069091400682339105A4
:10293000BCF40A969093400680933F0611C08091A4
:102940003F069091400618161906E4F40A979093F2
:10295000400680933F0616C08130910509F0A9C05A
:102960000330110509F0A0C080913F069091400608
:102970008B3391050CF098C001969093400680939C
:102980003F0692C003301105F1F480913F0690910B
:10299000400618161906BCF40197909340068093E0
:1029A0003F0611C080913D0690913E06823391050D
:1029B000E4F40A9690933E0680933D0616C082305A
:1029C000910509F07FC00430110509F076C08091AF
:1029D0003D0690913E06181619060CF06EC00A9737
:1029E00090933E0680933D0668C005301105C9F4FA
:1029F00080913D0690913E068B33910594F40196AB
:102A000090933E0680933D060CC080913D069091C8
:102A10003E06181619062CF4019790933E068093F3
:102A20003D0610923C0610923B0683B3807183BB37
:102A3000811111C083B3807183BB8823D9F381E0F6
:102A400090E090935C0680935B0661E08EE290E0FC
:102A50000E94393155C080913A068D3009F016CE6A
:102A600081E090E090935C0680935B0661E08EE2EB
:102A700090E00E94393144C0043011053CF58DCE00
:102A80000130110509F04BCF27CF8230910509F4B1
:102A900012CF62CF0230110509F074CF50CF8130D0
:102AA000910509F08CCF3BCF0430110509F09DCF83
:102AB00079CF029709F466CFB4CF0530110509F03C
:102AC000B0CFA3CF019709F0ACCF8FCFC801880F4B
:102AD000991F800F911F880F991F60E270E0C496C4
:102AE0000E9427035ACEC801880F991F800F911F9B
:102AF000880F991F60E270E0C4960E94270359CEA8
:102B0000DF91CF911F910F91FF90EF90DF90CF90C9
:102B1000BF90AF909F908F907F905F904F903F902D
:102B20002F900895FF920F931F93CF93DF9360919F
:102B30003D0686E390E00E94393160913F068EE3C6
:102B400090E00E9439316091410686E490E00E9455
:102B5000393186E390E00E94313190E09093440651
:102B6000809343068EE390E00E94313190E0909391
:102B700046068093450686E490E00E943131282F76
:102B800030E030934806209347061F928F93C9EC9C
:102B9000D1E0DF93CF9305EB1BE01F930F930E94CF
:102BA00095300F2EFAE3FF2EF02DF801F28280917E
:102BB00046068F93809145068F93DF93CF9388EBE2
:102BC0009BE09F938F930E949530F801F58280914E
:102BD00044068F93809143068F93DF93CF938BEBC3
:102BE0009BE09F938F930E949530EDB7FEB772964E
:102BF0000FB6F894FEBF0FBEEDBFDF91CF911F91CE
:102C00000F91FF900895EF92FF920F931F93CF9330
:102C1000DF938EEC91E00E94A10D8AE392E00E9486
:102C2000A10D00E010E0CCE2D1E010924A06109233
:102C3000490683B3827083BB811113C080912A0639
:102C400090912B060197081719075CF483B38270E3
:102C500083BB8823D9F3D0934A06C09349060F5FFC
:102C60001F4F83B3887083BB81110EC010161106ED
:102C70005CF483B3887083BB8823D9F3D0934A066E
:102C8000C09349060150110983B3807183BB811140
:102C900006C083B3807183BB8823D9F308C08091B9
:102CA000490690914A068C3291401CF211C00E9454
:102CB0006B062FE34AE060E08AE00E94CF0425E340
:102CC0004FE765E380E00E94CF040E94DA0286C0ED
:102CD0000E946B0660E070E08DE390E00E942703A5
:102CE00080E40E94700768E070E08BE090E00E9452
:102CF00027038DE592E00E944B09B801012E000CDC
:102D0000880B990B0E9472098DE20E94700768E19E
:102D100070E089E190E00E942703F801EE0FFF1FA9
:102D2000EE5FF94F80819181019729F48EE692E060
:102D30000E944B0904C08BE792E00E944B0960E2BD
:102D400070E08CE190E00E94270388E892E00E9406
:102D50004B09F801EE0FFF1FEA5EF94F8081918168
:102D6000892B29F480E992E00E944B0904C085E98F
:102D700092E00E944B0968E270E087E090E00E94D8
:102D800027038AE992E00E944B097801EE0CFF1CB0
:102D9000EE0CFF1CEE0CFF1CE00EF11EC7018B5168
:102DA000994F0E944B0960E370E08DE090E00E9433
:102DB000270386EA92E00E944B09C7018D58994F7C
:102DC0000E944B0968E370E08DE390E00E942703C6
:102DD00083E20E9470070E94DA0227CFDF91CF9131
:102DE0001F910F91FF90EF9008950E946B060E9433
:102DF000DA0268E070E080E190E00E94270380EB57
:102E000092E00E944B098091590690915A06892BB5
:102E1000A1F468E170E086E190E00E94270381EC74
:102E200092E00E944B096091140170911501072EE8
:102E3000000C880B990B0E947209809159069091A1
:102E40005A060197A1F468E170E086E190E00E94E3
:102E5000270388EC92E00E944B0960911201709167
:102E60001301072E000C880B990B0E9472098FEC3E
:102E700092E00E944B090E94DA0260E370E087E072
:102E800090E00E94270386ED92E00E944B0983B3F5
:102E9000827083BB811163C083B3827083BB88233C
:102EA000D9F38091590690915A06892B49F5809162
:102EB0001401909115018A3091052CF4019690939C
:102EC00015018093140183E00E94B10468E170E071
:102ED00086E190E00E94270381EC92E00E944B097A
:102EE0006091140170911501072E000C880B990B4D
:102EF0000E9472098FEC92E00E944B090E94DA0254
:102F00008091590690915A06019749F580911201D6
:102F1000909113018A3091052CF40196909313013E
:102F20008093120183E00E94B10468E170E086E1C1
:102F300090E00E94270388EC92E00E944B09609188
:102F4000120170911301072E000C880B990B0E943F
:102F500072098FEC92E00E944B090E94DA0283B35F
:102F6000887083BB811163C083B3887083BB88235F
:102F7000D9F38091590690915A06892B49F5809191
:102F8000140190911501863091052CF001979093D2
:102F900015018093140183E00E94B10468E170E0A0
:102FA00086E190E00E94270381EC92E00E944B09A9
:102FB0006091140170911501072E000C880B990B7C
:102FC0000E9472098FEC92E00E944B090E94DA0283
:102FD0008091590690915A06019749F58091120106
:102FE00090911301863091052CF001979093130175
:102FF0008093120183E00E94B10468E170E086E1F1
:1030000090E00E94270388EC92E00E944B096091B7
:10301000120170911301072E000C880B990B0E946E
:1030200072098FEC92E00E944B090E94DA0283B38E
:10303000807183BB8111DDCE83B3807183BB81112D
:1030400009C010924A061092490683B3807183BB6F
:103050008823B9F30E946B060E94DA0268E170E0EF
:1030600082E290E00E9427038AEE92E00E944B09E0
:1030700060E270E088E190E00E94270385EF92E033
:103080000E944B090E94DA0281E090E0909356067C
:10309000809355060895CF93DF930E946B0660E1FD
:1030A00070E085E290E00E94270384E093E00E94B4
:1030B0004B0968E170E082E290E00E9427038EE015
:1030C00093E00E944B09C1E0D0E010924A061092B2
:1030D000490683B3807183BB81110BC005C083B3E4
:1030E000807183BB811105C0D093FF05C093FE059D
:1030F00014C060E270E087E090E00E9427038AE15C
:1031000093E00E944B090E94DA021E9A80914906C0
:1031100090914A06843F914014F310924A0610920F
:10312000490683B3807183BB81110DC005C083B391
:10313000807183BB811107C081E090E09093FF050F
:103140008093FE051BC060E270E087E090E00E9483
:1031500027038AE193E00E944B090E94DA021E983D
:103160008091490690914A06843F914004F38091F2
:10317000FE059091FF05019709F0A7CF1E98DF91FA
:10318000CF9108953F924F925F926F927F928F926C
:103190009F92AF92BF92CF92DF92EF92FF920F93E6
:1031A0001F93CF93DF93CDB7DEB760970FB6F89438
:1031B000DEBF0FBECDBFFE01319680E1DF011D9263
:1031C0008A95E9F710923C0610923B0602E310E064
:1031D00033243394AA24A394B12C532C412C0F2EC6
:1031E000F4E6CF2ED12CF02D0F2EFEE26F2EF3E061
:1031F0007F2EF02D4F0110924C0610924B0610922C
:103200004A061092490680B1817080B981110AC0C6
:1032100080914D0690914E06892B21F4B0924E0676
:10322000A0924D0680B1952D20914D0630914E060D
:103230002130310509F0942D892380B9882369F064
:1032400010924E0610924D0680914B0690914C06BE
:10325000019690934C0680934B06A4D980913B062F
:1032600090913C068130910551F40436110594F497
:103270000B5F1F4F10923C0610923B060BC002974B
:1032800049F41016110634F40550110910923C0649
:1032900010923B0683B3807183BB81110CC083B352
:1032A000807183BB8823D9F381E090E09093FF0580
:1032B0008093FE05AEC08091FE059091FF050197B9
:1032C00009F4A7C08091490690914A068436910579
:1032D0000CF499CF86C0FF92EF927F926F929F92EB
:1032E0008F920E9495300E946B0660E070E086E14C
:1032F00090E00E94270381E393E00E944B0960E184
:1033000070E085E190E00E94270380E493E00E9452
:103310004B09C4010E944B0960E270E086E190E035
:103320000E9427038DE493E00E944B0980914B0695
:1033300090914C060F900F900F900F900F900F9060
:10334000843691052CF0D0924C06C0924B0606C0F4
:10335000892B21F4B0924C06A0924B0680914B062B
:1033600090914C06B601681B790B072E000C880B58
:10337000990B0E94720980914B0690914C06960120
:10338000281B390B8091080190910901821793073E
:103390000CF481DE80914B0690914C069601281B1F
:1033A000390B8091510690915206281739070CF479
:1033B00072DE0E151F050CF46EDE60E370E08CE12A
:1033C00090E00E9427038AE593E00E944B09B80130
:1033D000012E000C880B990B0E9472090E94DA02E0
:1033E0000ACF0E94E10D832D0E94E60D0A977C0111
:1033F0001AF4AFEFEA1AFA0AF594E794FF2014F4EE
:10340000E12CF12CB4E6EB16F1040CF464CF760158
:1034100062CF60960FB6F894DEBF0FBECDBFDF91CE
:10342000CF911F910F91FF90EF90DF90CF90BF90C1
:10343000AF909F908F907F906F905F904F903F9054
:1034400008950F931F93CF93DF9380915706909128
:103450005806892B09F0A7C010924A061092490617
:10346000C0E0D0E001E010E083B3807183BB811144
:103470000AC083B3807183BB8823D9F310925A06A4
:1034800010925906B2DC83B3847083BB811110C0E3
:1034900083B3847083BB8823D9F310924A061092B9
:1034A000490681E090E09093540680935306D7C07C
:1034B00083B3827083BB811110C08091000690910C
:1034C0000106019751F483B3827083BB8823D9F33B
:1034D0009ADB10924A061092490683B3887083BB28
:1034E000811107C083B3887083BB8823D9F34ADE78
:1034F0005AC00E948F0D80933A06813379F40E945E
:10350000B00E10924A061092490610923A0681E0D7
:1035100090E09093500680934F0645C0823379F433
:103520000E94091110924A061092490610923A061A
:1035300081E090E09093500680934F0634C082372C
:1035400041F1C130D10539F5833329F560E08EE2D0
:1035500090E00E943931109242061092410610927A
:10356000400610923F0610923E0610923D061092C1
:103570005C0610925B064BD810924A0610924906E0
:1035800010923A0681E090E09093500680934F06A7
:103590000AC0C02FD12F8091490690914A068C3DD8
:1035A00095400CF461CF8091530690915406892B7D
:1035B00009F055C00E94B00D0E94BD0D0E94C50DBE
:1035C0008093AF0B0E94C50D8093AC0B0E94C50D7C
:1035D0008093AE0B0E94C50D8093B40B0E94C50D65
:1035E0008093AD0B8091AE0B4AE066EA7BE090E001
:1035F0000E94363066EA7BE08DE99BE00E94243031
:103600008091B40B4AE066EA7BE090E00E9436309D
:1036100066EA7BE080EA9BE00E942430CEE2C09321
:103620009F0B8091AF0B4AE066EA7BE090E00E943E
:10363000363066EA7BE084E696E00E942430809192
:10364000AC0B4AE066EA7BE090E00E94363066EA26
:103650007BE087E696E00E942430C0936606DF9107
:10366000CF911F910F9108952F923F924F925F92A9
:103670006F927F928F929F92AF92BF92CF92DF9282
:10368000EF92FF920F931F93CF93DF93CDB7DEB7E7
:103690006C970FB6F894DEBF0FBECDBF01E010E00F
:1036A0001093310600933006C69A0E94C90A0E9400
:1036B000660B10935806009357061E8A1D8A9E01BA
:1036C0002F5F3F4F19010F2EFDE94F2EF3E05F2EC4
:1036D000F02D2F8B388E8091000190910101019780
:1036E000D1F78D899E890C969C8F8B8F9A8F898FAD
:1036F00019DA85E693E00E94A10D83E893E00E9429
:10370000A10D10DA85EB9BE00E94A10D81E993E009
:103710000E94A10D8F89988D0E94A10D2D893E894F
:103720002E5F3F4F3E8B2D8B253631050CF0F2C0BE
:103730003F932F938EE293E09F938F933F922F922C
:103740000E94953088E893E00E94A10D8F89988DA2
:103750000E94A10D8BE993E00E94A10D10924A06F0
:10376000109249060F900F900F900F900F900F90AE
:103770000E94390C20E030E048EC52E46091A20B4A
:103780007091A30B8091A40B9091A50B0E94E42A49
:1037900020E030E048EC52E40E94F12829E43DE9C1
:1037A00040E85CE30E94E42A9B01AC0163EC75EF06
:1037B00088E490E40E94F0286B017C0126E838E35D
:1037C00046ED5DE30E945C2920E030E040E251E4F8
:1037D0000E94F1280E94C429673271052CF470936D
:1037E00033066093320606C087E290E0909333067A
:1037F0008093320627EC3BE445E652E4C701B6016C
:103800000E94E42A862E972EA82EB92E662E772E99
:10381000182F092F20E030E0A9010E945529181621
:103820008CF420E030E044E353E4682D792D8A2DB8
:103830009B2D0E94E02A88234CF0612C712C14E30C
:1038400003E404C0612C712C10E000E00F931F937F
:103850007F926F925F924F923F922F920E9495308B
:103860000E946B06C701B6010E94472B20E030E0A2
:1038700040E252E40E94E42A9B01AC0160E070E067
:103880008CE792E40E94F0280E94C929062FC70104
:10389000B6010E94592920E030E040E252E40E9443
:1038A000E42A9B01AC0160E070E080E892E40E94B1
:1038B000F0280E94C929162F202F462F6FE380E49D
:1038C0000E94CF04202F412F6FE38DE30E94CF048D
:1038D000202F412F6FE383E40E94CF040E94DA027D
:1038E0000FB6F894DEBF0FBECDBF80914906909110
:1038F0004A068A3F91050CF43BCF8D899E89298D1C
:103900003A8D8217930709F0F3CE8B8D9C8D9E8B99
:103910008D8BE1CE10925806109257061092310608
:10392000109230066C960FB6F894DEBF0FBECDBF76
:10393000DF91CF911F910F91FF90EF90DF90CF908B
:10394000BF90AF909F908F907F906F905F904F90BF
:103950003F902F9008952F923F924F925F926F92D7
:103960007F928F929F92AF92BF92CF92DF92EF920F
:10397000FF920F931F93CF93DF9381E090E090939A
:10398000010680930006CED80F2EF5EBAF2EFBE09C
:10399000BF2EF02D80912A0690912B06DC01AA0FF4
:1039A000BB1FAA0FBB1FAA0FBB1F8A0F9B1FDC01E7
:1039B000AB51B94F0F2EFEEB8F2EFBE09F2EF02D5B
:1039C000F50181918D93E815F905D9F71E9883B11A
:1039D00013B80E946B0660E070E08DE090E00E94FA
:1039E000270383EA93E00E944B098091060190919E
:1039F0000701892B21F489EA93E00E944B09809109
:103A0000060190910701019721F486EB93E00E9453
:103A10004B098091060190910701029721F483ECF4
:103A200093E00E944B098091060190910701039752
:103A300021F480ED93E00E944B090E94DA0281E0BC
:103A400090E090935806809357068EEC91E00E9488
:103A5000A10D8DED93E00E94A10DC0E0D0E000E04B
:103A600010E0CC24C394D12C0F2EF4E12F2E312C56
:103A7000F02D412C0F2EFDE05F2EF02D0F2EF3E0E8
:103A8000EF2EF12CF02D10924A06109249064AD8DA
:103A900082E00E94B10460E170E088E290E00E9460
:103AA000270385EB9BE00E944B090E94DA0280917C
:103AB0000601909107018130910509F040C0011580
:103AC000110509F0E7C22091FA053091FB05283E67
:103AD00033409CF01092FB051092FA0521960DC020
:103AE0008091FA059091FB058032934054F1109239
:103AF000FB051092FA05219624C00230110571F4DD
:103B00002091FA053091FB05283532400CF4C7C2EC
:103B10001092FB051092FA052196C1C203301105DF
:103B200081F42091FA053091FB05203931400CF4E5
:103B3000BAC21092FB051092FA052196B4C2019701
:103B400081F50430110561F48091FA059091FB052F
:103B5000883C91052CF01092FB051092FA052196F5
:103B600083B1807E83B9C130D10511F4189A0AC09F
:103B7000C230D10511F4199A0AC0C330D10511F42D
:103B80001A9A0AC0C430D10511F41B9A0AC0C53074
:103B9000D10511F41C9A05C0C630D10511F4C1E05D
:103BA000D0E08091490690914A06843F91400CF400
:103BB0006ECFB1E0EB1AF10809F065CF42DC84E08A
:103BC0000E94B1048091060190910701029780F450
:103BD00060E270E08EE290E00E9427038DE99BE0B6
:103BE0000E944B098EE50E94700783E40E947007D3
:103BF00080910601909107010297029768F460E2B4
:103C000070E081E390E00E94270384E696E00E9442
:103C10004B0985E20E94700780910601909107018F
:103C2000892B09F071C01092350610923406D0929B
:103C30003106C0923006C69A0091AE0B10E080911A
:103C4000100190911101081719075CF1081B190B5D
:103C50000333110564F4C801880F991F800F911F69
:103C6000880F991F0B9690933306809332068091AC
:103C7000320690913306889734F088E290E0909372
:103C800033068093320687E00E94B10468E370E057
:103C900080E090E00E94270382E294E00E944B09BA
:103CA00033C0109233061092320680912A0690910A
:103CB0002B06FC01EE0FFF1FEE0FFF1FEE0FFF1F85
:103CC000E80FF91FED58F94FD5012D915D012193B2
:103CD000A815B905C9F79C01220F331FF901EE5F42
:103CE000F94F41E050E051834083F901EA5EF94F1A
:103CF0001182108201968A30910509F0B0C11092AC
:103D00002B0610922A06AFC18091060190910701FF
:103D1000019709F06CC0109235061092340610928B
:103D20003106109230068091AE0B90E000910E01AA
:103D300010910F018017910754F4081B190B0150C3
:103D4000110904301105A4F104E010E031C08091A4
:103D50002A0690912B06FC01EE0FFF1FEE0FFF1FAE
:103D6000EE0FFF1FE80FF91FED58F94FD5012D9108
:103D70005D012193A815B905C9F79C01220F331FD6
:103D8000F901EE5FF94F11821082F901EA5EF94FF5
:103D90001182108201968A30910529F090932B06AA
:103DA00080932A0660C110922B0610922A065BC1EE
:103DB00087E00E94B10468E370E080E090E00E9438
:103DC00027038DE294E00E944B09C801880F991FD8
:103DD000800F911F880F991F880F991F68E370E06B
:103DE000885B9F4F0E94270384E20E9470078091A6
:103DF000060190910701029709F070C0D092350634
:103E0000C092340610923106109230068091AF0BAA
:103E100090E020910C0130910D01821793073CF145
:103E2000821B930B0596843191052CF490933706F1
:103E30008093360604C03092370620923606809171
:103E4000360690913706059763E070E00E941A2FBE
:103E50008B0187E00E94B10468E370E080E090E0AD
:103E60000E94270383E494E00E944B0937C010921C
:103E700037061092360680912A0690912B06FC0197
:103E8000EE0FFF1FEE0FFF1FEE0FFF1FE80FF91FD2
:103E9000ED58F94FD5012D915D012193A815B90574
:103EA000C9F79C01220F331FF901EE5FF94F41E082
:103EB00050E051834083F901EA5EF94F518340831A
:103EC00001968A30910529F090932B0680932A065B
:103ED000CAC010922B0610922A06C5C08091060116
:103EE00090910701039709F070C0D0923506C092F7
:103EF000340610923106109230062091AF0B30E05C
:103F000080910A0190910B01821793073CF1821B6B
:103F1000930B0596843191052CF49093370680938A
:103F2000360604C030923706209236068091360657
:103F300090913706059763E070E00E941A2F8B017D
:103F400087E00E94B10468E370E080E090E00E94A6
:103F5000270383E494E00E944B0937C01092370690
:103F60001092360680912A0690912B06FC01EE0FE6
:103F7000FF1FEE0FFF1FEE0FFF1FE80FF91FED5899
:103F8000F94FD5012D915D012193A815B905C9F708
:103F90009C01220F331FF901EE5FF94F41E050E021
:103FA00051834083F901EA5EF94F518340830196C2
:103FB0008A30910529F090932B0680932A0653C0EE
:103FC00010922B0610922A064EC0053011050CF0F7
:103FD00073C08091060190910701019709F44ECDBD
:103FE00083B113B8101611060CF4189A023011059B
:103FF0001CF083B1836083B9033011051CF083B1D9
:10400000876083B9043011051CF083B18F6083B9D8
:10401000053011051CF083B18F6183B910161106AC
:10402000DCF4509E7001519EF00C1124BFE3EB0EA6
:10403000F11C0F2EFFE36F2E712CF02D68E370E062
:10404000C3010E9427038CE30E9470072DE0620EDB
:10405000711C6E147F0491F70E94DA020FCD9093C9
:104060002B0680932A06109258061092570610923B
:104070003506109234061092310610923006C79819
:10408000C69883B113B88AE090E0909307018093BB
:1040900006011BC00130110509F422CD2ECD019778
:1040A00009F07FCD5DCD019709F45ACD7ACD83B16A
:1040B00013B805E0142D99CF809106019091070166
:1040C0000197A9F705E0142DD9CCDF91CF911F916D
:1040D0000F91FF90EF90DF90CF90BF90AF909F90A7
:1040E0008F907F906F905F904F903F902F900895AA
:1040F00080915E0690915F06019690935F06809393
:104100005E060697B4F468E370E080913401909104
:1041100035010E9427038EE30E9470070E94DA0295
:1041200080913401909135014496909335018093AC
:10413000340180915E0690915F068530910539F4D7
:1041400085E190E0909335018093340156C0069745
:10415000059708F048C068E370E0809134019091C1
:1041600035010E9427038CE30E9470070E94DA0247
:10417000809134019091350144969093350180935C
:1041800034011E9A80915E0690915F06059718167D
:1041900019060CF4189A80915E0690915F060597B7
:1041A00002971CF083B1836083B980915E06909181
:1041B0005F06059703971CF083B1876083B98091F0
:1041C0005E0690915F06059704971CF083B18F609F
:1041D00083B980915E0690915F06059705971CF064
:1041E00083B18F6183B980915E0690915F068730BD
:1041F000910511F0099709F41E9880915E0690913F
:104200005F060B9711F41E98A6CB0895CF92DF920C
:10421000EF92FF920F931F93CF93DF93EC0185E111
:1042200090E0909335018093340110925F061092D4
:104230005E0681E090E090935806809357060E94B6
:104240006B0668E070E08DE090E00E9427038EE44A
:1042500094E00E944B09C230D10520F485E594E03A
:104260000E944B09CE010297029720F481E694E068
:104270000E944B0968E170E08DE090E00E94270306
:1042800083EA93E00E944B092DE02C9FC0012D9FF3
:10429000900D1124835B944F0E944B0968E270E0FB
:1042A00084E090E00E9427038DE694E00E944B0991
:1042B0000E94DA020AE010E0CC24C394D12C0F2E25
:1042C000F3E0EF2EF12CF02D10924A0610924906E1
:1042D0000E949215209779F48091AE0B90E0209186
:1042E000100130911101821793074CF510930701CB
:1042F0000093060124C0C130D10579F48091AE0B42
:1043000090E020910E0130910F012817390744F5F4
:10431000109307010093060123C0C230D10579F440
:104320008091AF0B90E020910C0130910D0182172C
:104330009307B4F4109307010093060111C0C33032
:10434000D10571F48091AF0B90E020910A0130917A
:104350000B012817390724F4109307010093060175
:1043600060E070E080E090E00E94270380E00E941F
:10437000B1040E94DA028091490690914A06843F76
:1043800091400CF4A5CFB4DE809106019091070115
:104390000A9759F40E946B060E94DA028091060186
:1043A000909107010A9731F40BC081E0E81AF108F7
:1043B00009F08ACF46D8D0925006C0924F067FCFE0
:1043C0000E946B060E94DA0280E090E0DF91CF91BC
:1043D0001F910F91FF90EF90DF90CF900895209163
:1043E000AE0B30E080911001909111012817390730
:1043F0003CF0109207011092060180E090E008C0A6
:1044000080910601909107018A30910509F458C006
:10441000FDDE8FEB83B98091AE0B90E020910E0111
:1044200030910F01821793073CF481E090E0909364
:1044300007018093060108C0809106019091070151
:104440008A30910509F44DC0E1DE8FEB83B92091EC
:10445000AF0B30E080910C0190910D0128173907C6
:104460003CF082E090E0909307018093060107C042
:1044700080910601909107018A30910551F1C6DEC5
:104480008FEB83B98091AF0B90E020910A013091BE
:104490000B01281739073CF083E090E09093070167
:1044A0008093060107C080910601909107018A3030
:1044B000910519F0ABDE8FEB83B983B113B8089582
:1044C00080910E0190910F01281739070CF4ADCFA0
:1044D00008C080910A0190910B0182179307E4F6BE
:1044E000ECCF2091AF0B30E080910C0190910D0149
:1044F000281739070CF0B5CFECCF0F931F93CF934C
:10450000DF9382E894E00E94A10D8EE894E00E947F
:10451000A10D809115018F93809114018F930EE26C
:1045200013E01F930F93C9EDD6E0DF93CF930E9462
:104530009530CE010E94A10D80ED92E00E94A10D68
:104540008FE994E00E94A10D809111018F938091D9
:1045500010018F931F930F93DF93CF930E94953099
:10456000CE010E94A10D89EA94E00E94A10D8091E4
:104570000F018F9380910E018F931F930F93DF9301
:10458000CF930E949530CE010E94A10D83EB94E061
:104590000E94A10D80910D018F9380910C018F934A
:1045A0001F930F93DF93CF930E949530CE010E940B
:1045B000A10D8DEB94E00E94A10D80910B018F93D2
:1045C00080910A018F931F930F93DF93CF930E94E3
:1045D0009530CE010E94A10D8DB79EB74E960FB6B5
:1045E000F8949EBF0FBE8DBFDF91CF911F910F91A9
:1045F00008950F931F93CF93DF9387EC94E00E946D
:10460000A10D81ED94E00E94A10D809113018F9383
:10461000809112018F930EE213E01F930F93C9ED67
:10462000D6E0DF93CF930E949530CE010E94A10D7A
:1046300080ED92E00E94A10D82EE94E00E94A10D17
:10464000809109018F93809108018F931F930F939D
:10465000DF93CF930E949530CE010E94A10D8CEE86
:1046600094E00E94A10D809152068F938091510693
:104670008F931F930F93DF93CF930E949530CE01BA
:104680000E94A10D8DB79EB742960FB6F8949EBFBB
:104690000FBE8DBFDF91CF911F910F9108952F9283
:1046A0003F924F925F926F927F928F929F92AF92C2
:1046B000BF92CF92DF92EF92FF920F931F93CF930F
:1046C000DF9300D000D000D0CDB7DEB781E090E01E
:1046D00090935A06809359060E946B062FE34AE096
:1046E00060E08AE00E94CF0425E34FE765E380E0C5
:1046F0000E94CF040E94DA0286EF94E00E94A10D8E
:1047000078DF1E821D82C12CD12C1A8219820F2EB5
:10471000FAE0EF2EF12CF02D1C821B820AE010E053
:104720000F2EF4E6AF2EB12CF02D66246394712C7D
:1047300033243394212C4A2C5B2C0F2EF5E38F2E3F
:10474000912CF02D10924A061092490680B181708A
:1047500080B981110AC080914D0690914E06892B37
:1047600021F460924D0670924E0680B1932D2091F7
:104770004D0630914E062130310509F0922D8923E6
:1047800080B9882369F010924E0610924D068091F0
:104790004B0690914C06019690934C0680934B06E5
:1047A00083B3807183BB811114C083B3807183BBD9
:1047B0008823D9F30E94F5162FEF3DE349E42150F9
:1047C00030404040E1F700C000004092490650925E
:1047D0004A0683B3847083BB811112C083B3847093
:1047E00083BB811109C0609253067092540683B353
:1047F000847083BB8823B9F34092490650924A06DD
:1048000083B3887083BB811110C083B3887083BB6E
:104810008823D9F30E94C2180E946B061092FF05EC
:104820001092FE050AE010E089C00E948F0D80936F
:104830003A068133E9F40E94B00E0E946B062FE322
:104840004AE060E08AE00E94CF0425E34FE765E399
:1048500080E00E94CF040E94DA0210924A06109271
:10486000490610923A0660924F067092500666C052
:104870008233E9F40E9409110E946B062FE34AE09B
:1048800060E08AE00E94CF0425E34FE765E380E023
:104890000E94CF040E94DA0210924A061092490642
:1048A00010923A0660924F067092500647C08237C7
:1048B000D9F12D813E8121303105C1F58333B1F528
:1048C00060E08EE290E00E94393110924206109230
:1048D00041061092400610923F0610923E0610923A
:1048E0003D0610925C0610925B060E940713109220
:1048F0004A061092490610923A0660925506709246
:1049000056060E946B062FE34AE060E08AE00E94B0
:10491000CF0425E34FE765E380E00E94CF040E94C7
:10492000DA021E821D820AC06D827E828091490653
:1049300090914A06843691050CF408CF3FEFC31AD4
:10494000D30A4AE0C416D10439F486EF94E00E94F9
:10495000A10D4FDEC12CD12C8091530690915406AD
:10496000019729F41092540610925306A8C0809122
:104970004B0690914C06843691052CF040924B06E4
:1049800050924C0606C0892B21F460924B0670921F
:104990004C060A301105B1F480914B0690914C06FB
:1049A0009501281B390BC90199230CF401969595A3
:1049B00087959401281B390B3C832B833A832983E9
:1049C000780103C00F37110534F48091550690919A
:1049D0005606019769F40E946B06109256061092D3
:1049E00055060F2EFAE0EF2EF12CF02D0AE010E024
:1049F00087E00E94B1042FE34AE060E08AE00E9471
:104A0000CF0425E34FE765E380E00E94CF0468E32D
:104A100070E08CE090E00E9427038EE891E00E9415
:104A20004B0980914B0690914C06B501681B790BA0
:104A3000072E000C880B990B0E94720985E20E94D8
:104A400070070E94921568E370E082E490E00E9493
:104A500027030E94921585EB9BE00E944B0941E0E1
:104A600069818E2D0E94D10529814E2D6B81802F69
:104A70000E94CF040E94DA022091120130911301AA
:104A8000E20EF31E80914B0690914C06A501481B47
:104A9000590BCA0199230CF4019695958795A401A9
:104AA000481B590B5A834983020F131F10924C065F
:104AB00010924B0686E390E09C838B8343CE269630
:104AC0000FB6F894DEBF0FBECDBFDF91CF911F911F
:104AD0000F91FF90EF90DF90CF90BF90AF909F909D
:104AE0008F907F906F905F904F903F902F900895A0
:104AF0005F926F927F928F929F92AF92BF92CF926E
:104B0000DF92EF92FF920F931F93CF93DF93109258
:104B10005A061092590610925806109257060E9493
:104B20006B062FE34AE060E08AE00E94CF0425E3B1
:104B30004FE765E380E00E94CF040E94DA0286EF2F
:104B400094E00E94A10DD9DC712CC0E0D0E0A12C32
:104B50000AE010E00F2EF5E38F2E912CF02D0F2E92
:104B6000FAE05F2EF02D612C03C08E017C2CAE2C60
:104B70000E94211A0E94921586EF94E00E94A10DD6
:104B8000BCDC8091530690915406019729F4109251
:104B9000540610925306E1C022DC0A30110509F0D8
:104BA000D7C08091AE0B7401E81AF1088091AF0B69
:104BB00086956401C81AD108E80125C08091AE0B22
:104BC0007401E81AF1088091140190911501080F01
:104BD000191F8091AF0B86956401C81AD108013066
:104BE000110589F40091140110911501065F1F4F02
:104BF0008091AE0B7401E81AF1088091AF0B869595
:104C00006401C81AD1080F3711059CF4809155062C
:104C100090915606019769F080914F069091500649
:104C2000019739F08091FE059091FF05019709F0F9
:104C300043C010925606109255060E946B062FE351
:104C40004AE060E08AE00E94CF0425E34FE765E395
:104C500080E00E94CF0468E370E08CE090E00E9466
:104C6000270382E495E00E944B098DE99BE00E94B6
:104C70004B0968E370E086E490E00E94270387E434
:104C800095E00E944B0984E696E00E944B090E9441
:104C9000DA021092500610924F06109258061092A7
:104CA00057061092FF051092FE050F2EFAE0BF2E58
:104CB000F02DC52DD62D02C0BC2EE80187E00E9444
:104CC000B1042FE34AE060E08AE00E94CF0425E3CC
:104CD0004FE765E380E00E94CF0468E370E08CE07A
:104CE00090E00E94270382E495E00E944B098DE941
:104CF0009BE00E944B0968E370E086E490E00E942C
:104D0000270387E495E00E944B0984E696E00E9421
:104D10004B092A2D4B2D6E2D8C2F0E94CF0441E084
:104D20006E2D8C2F0E94D105272D4B2D6C2D8C2F95
:104D30000E94CF0441E06C2D8C2F0E94D1050E946F
:104D4000DA02CA30D10509F010CF01E010E00ECF31
:104D50000130110509F032CF45CFDF91CF911F917E
:104D60000F91FF90EF90DF90CF90BF90AF909F900A
:104D70008F907F906F905F9008958091F60590914D
:104D8000F705892B99F50E946B0660E070E08FE1D2
:104D900090E00E9427038CE495E00E944B0968E1B3
:104DA00070E080E090E00E94270388E595E00E9493
:104DB0004B0968E270E080E090E00E94270389E6FA
:104DC00095E00E944B090E94DA028EE290E00E9478
:104DD000313190E09093FD058093FC05019731F40B
:104DE00081E090E090935C0680935B068091F605ED
:104DF0009091F705019709F01EC10E946B0660E0D3
:104E000070E086E190E00E9427038DE695E00E9425
:104E10004B0960E170E08CE090E00E9427038CE792
:104E200095E00E944B0960E270E08CE090E00E9407
:104E300027038CE895E00E944B0960E370E08CE06A
:104E400090E00E94270388E995E00E944B09609159
:104E5000F8057091F9056F5F7F4F62957295707FCD
:104E60007627607F762780E090E00E9427038CE31E
:104E70000E9470070E94DA0283B3887083BB81119D
:104E800014C08091F8059091F905029774F483B3EA
:104E9000887083BB8823D9F38091F8059091F90538
:104EA00001969093F9058093F80583B3827083BBD4
:104EB000811115C08091F8059091F9051816190611
:104EC00074F483B3827083BB8823D9F38091F8058F
:104ED0009091F90501979093F9058093F80583B3B4
:104EE000807183BB811134C08091F8059091F905E0
:104EF000892B71F583B3807183BB8823D9F3F8DDE7
:104F00001092F7051092F60587EA95E00E94A10D30
:104F10008AEA95E00E94A10D85EB95E00E94A10D23
:104F20008EEB95E00E94A10D8BEB95E00E94A10D08
:104F300081ED95E00E94A10D8AEB95E00E94A10D04
:104F400083EE95E00E94A10D8BEB95E00E94A10DF0
:104F500083B3807183BB811134C08091F805909137
:104F6000F905019771F583B3807183BB8823D9F369
:104F700096DB1092F7051092F60587EA95E00E94FD
:104F8000A10D8AEA95E00E94A10D85EB95E00E94B3
:104F9000A10D8EEB95E00E94A10D8BEB95E00E9498
:104FA000A10D81ED95E00E94A10D8AEB95E00E9494
:104FB000A10D83EE95E00E94A10D8BEB95E00E9480
:104FC000A10D83B3807183BB811135C08091F80539
:104FD0009091F905029779F583B3807183BB88239B
:104FE000D9F30E94341B1092F7051092F60587EA58
:104FF00095E00E94A10D8AEA95E00E94A10D85EB43
:1050000095E00E94A10D8EEB95E00E94A10D8BEB27
:1050100095E00E94A10D81ED95E00E94A10D8AEB23
:1050200095E00E94A10D83EE95E00E94A10D8BEB0F
:1050300095E00E94A10D83B3817083BB811135C0BF
:105040008091F6059091F705892B79F583B38170EE
:1050500083BB8823D9F387EA95E00E94A10D8AEAF1
:1050600095E00E94A10D85EB95E00E94A10D8EEBCD
:1050700095E00E94A10D0E94B00E8BEB95E00E947E
:10508000A10D81ED95E00E94A10D0E9407138AEB0E
:1050900095E00E94A10D83EE95E00E94A10D0E9473
:1050A00009118BEB95E00E94A10D83B3847083BB43
:1050B000811111C08091F6059091F705892B59F463
:1050C00083B3847083BB8823D9F381E090E090930D
:1050D000F7058093F60508958FEF87BB14BA82B960
:1050E0001E988DE0E9EAF3E0ADE4BBE001900D929B
:1050F0008A95E1F78DE0E6EBF3E0AAE5BBE00190ED
:105100000D928A95E1F78DE0E3ECF3E0A7E6BBE0D2
:1051100001900D928A95E1F78DE0E0EDF3E0A4E7D0
:10512000BBE001900D928A95E1F778940E94670C9C
:105130000E94710C0E94780D0E947A040E946B06F6
:1051400048E065E08CEA91E00E94520783B113B811
:105150000E94DA02109258061092570610923506F5
:105160001092340610923106109230068EE290E0D2
:105170000E94313190E09093FD058093FC050197EA
:10518000D9F486E390E00E94313190E090933E069E
:1051900080933D068EE390E00E94313190E0909341
:1051A000400680933F0686E490E00E94313190E013
:1051B000909342068093410687EA95E00E94A10DF4
:1051C0008AEA95E00E94A10D0E94F10D85EB95E021
:1051D0000E94A10DC798C69883B113B8CEDDFECF4B
:1051E0005058BB27AA270ED0A0C169D130F06ED18C
:1051F00020F031F49F3F11F41EF45EC10EF4E095EF
:10520000E7FB54C1E92FB3D180F3BA1762077307E4
:105210008407950718F071F49EF5CBC10EF4E09564
:105220000B2EBA2FA02D0B01B90190010C01CA0160
:10523000A0011124FF27591B99F0593F50F4503E0B
:1052400068F11A16F040A22F232F342F4427585FFD
:10525000F3CF469537952795A795F0405395C9F715
:105260007EF41F16BA0B620B730B840BBAF09150CD
:10527000A1F0FF0FBB1F661F771F881FC2F70EC06C
:10528000BA0F621F731F841F48F48795779567953F
:10529000B795F7959E3F08F0B3CF9395880F08F028
:1052A0009927EE0F979587950895DCD008F481E053
:1052B000089514D1E3954AC10CD037C107D140F00D
:1052C000FED030F021F45F3F19F0F0C0511172C1EF
:1052D000F3C04DD198F39923C9F35523B1F3951B2E
:1052E000550BBB27AA2762177307840738F09F5F07
:1052F0005F4F220F331F441FAA1FA9F333D00E2E76
:105300003AF0E0E830D091505040E695001CCAF7E2
:1053100029D0FE2F27D0660F771F881FBB1F2617A7
:1053200037074807AB07B0E809F0BB0B802DBF017A
:10533000FF2793585F4F2AF09E3F510568F0B6C093
:1053400039C15F3FECF3983EDCF38695779567951E
:10535000B795F7959F5FC9F7880F911D969587952B
:1053600097F90895E1E0660F771F881FBB1F62174A
:1053700073078407BA0720F0621B730B840BBA0B08
:10538000EE1F88F7E095089504D06894B11112C11A
:105390000895F5D088F09F5790F0B92F9927B7510D
:1053A000A0F0D1F0660F771F881F991F1AF0BA95E9
:1053B000C9F712C0B13081F0FCD0B1E00895F9C056
:1053C000672F782F8827B85F39F0B93FCCF38695DF
:1053D00077956795B395D9F73EF49095809570953C
:1053E00061957F4F8F4F9F4F0895E89409C097FBB9
:1053F0003EF490958095709561957F4F8F4F9F4FAC
:105400009923A9F0F92F96E9BB279395F6958795EF
:1054100077956795B795F111F8CFFAF4BB0F11F4B2
:1054200060FF1BC06F5F7F4F8F4F9F4F16C0882359
:1054300011F096E911C0772321F09EE8872F762F8F
:1054400005C0662371F096E8862F70E060E02AF0D0
:105450009A95660F771F881FDAF7880F96958795BC
:1054600097F90895990F0008550FAA0BE0E8FEEF91
:1054700016161706E807F907C0F012161306E40718
:10548000F50798F0621B730B840B950B39F40A2611
:1054900061F0232B242B252B21F408950A2609F4EF
:1054A000A140A6958FEF811D811D089597F99F67F3
:1054B00080E870E060E008959FEF80EC089500249C
:1054C0000A941616170618060906089500240A9469
:1054D00012161306140605060895EECF50D0E8F311
:1054E000E894E0E0BB279F57F0F02AED3FE049EC5D
:1054F00006C0EE0FBB0F661F771F881F28F0B23A59
:1055000062077307840728F0B25A620B730B840B8F
:10551000E3959A9572F7803830F49A95BB0F661F21
:10552000771F881FD2F79048BAC0092E0394000C49
:1055300011F4882352F0BB0F40F4BF2B11F460FF2D
:1055400004C06F5F7F4F8F4F9F4F0895EF93E0FF31
:1055500006C0A2EA2AED3FE049EC5FEB53DEE5DF4F
:105560000F90039401FC9058ECE8F0E0A4C057FDC4
:105570009058440F551F59F05F3F71F04795880FC1
:1055800097FB991F61F09F3F79F087950895121658
:1055900013061406551FF2CF4695F1DF08C0161604
:1055A00017061806991FF1CF8695710561050894B5
:1055B0000895E894BB2766277727CB0197F90895CC
:1055C00051DF08F48FEF08950BD0AFCF78DF28F0CC
:1055D0007DDF18F0952309F069CF6ECF1124EACF53
:1055E000C6DFA0F3959FD1F3950F50E0551F629F42
:1055F000F001729FBB27F00DB11D639FAA27F00D2C
:10560000B11DAA1F649F6627B00DA11D661F829F52
:105610002227B00DA11D621F739FB00DA11D621F37
:10562000839FA00D611D221F749F3327A00D611D54
:10563000231F849F600D211D822F762F6A2F112436
:105640009F5750408AF0E1F088234AF0EE0FFF1F89
:10565000BB1F661F771F881F91505040A9F79E3FC0
:10566000510570F023CFA6CF5F3FECF3983EDCF3FB
:10567000869577956795B795F795E7959F5FC1F7FD
:10568000FE2B880F911D9695879597F908959F9306
:1056900025DF0F9007FCEE5F59CF9F3F31F091500F
:1056A00020F4879577956795B795880F911D969506
:1056B000879597F908959F938F937F936F93FF93A7
:1056C000EF939B01AC0180DFEF91FF9105D02F910B
:1056D0003F914F915F9178CFDF93CF931F930F93BB
:1056E000FF92EF92DF927B018C01689405C0DA2E65
:1056F000EF0176DFFE01E894A59125913591459162
:105700005591AEF3EF017EDDFE019701A801DA9419
:1057100079F7DF90EF90FF900F911F91CF91DF917C
:1057200008952F923F924F925F926F927F928F9245
:105730009F92AF92BF92CF92DF92EF92FF920F9320
:105740001F93CF93DF93CDB7DEB760970FB6F89472
:10575000DEBF0FBECDBF7C011B016A01FC011782B9
:105760001682838181FF2AC39E012F5F3F4F39013B
:10577000F7019381F10193FD859193FF81911F01C1
:10578000882309F417C3853239F493FD859193FF7B
:1057900081911F01853231F4B70190E08AD456011E
:1057A0006501E6CF10E0512C912CFFE1F915D8F0FE
:1057B0008B3279F038F4803279F08332A1F4F92D0C
:1057C000F0612EC08D3261F0803369F4292D2160A3
:1057D0002DC0392D3260932E892D8460982E2AC0D9
:1057E000E92DE86015C097FC2DC020ED280F2A3068
:1057F00088F496FE06C03AE0139F200D1124122F64
:1058000019C08AE0589E200D1124522EE92DE06225
:105810009E2E10C08E3231F496FCCCC2F92DF0646D
:105820009F2E08C08C3621F4292D2068922E02C0AC
:10583000883641F4F10193FD859193FF81911F0119
:105840008111B3CF9BEB980F933020F4992D906189
:10585000805E07C09BE9980F933008F059C1992DDD
:105860009F7E96FF16E09F73992E853619F49064FB
:10587000992E08C0863621F4392F3068932E02C045
:105880001111115097FE07C01C3350F44424439467
:10589000410E27E00BC0183038F027E017E005C0B4
:1058A00027E09CE3492E02C0212F412C560184E0C1
:1058B000A80EB11CF6016081718182819381042D53
:1058C000A301DFD26C01F981FC87F0FF02C0F3FF76
:1058D00006C091FC06C092FE06C000E205C00DE2C3
:1058E00003C00BE201C000E08C858C7019F001113F
:1058F00043C280C297FE10C04C0CFC85F4FF04C06C
:105900008A81813309F44A94141474F528E024152B
:1059100078F588E0482E2CC096FC2AC0812F90E0B4
:105920008C159D059CF03CEFC3163FEFD30674F039
:10593000892D8068982E0AC0E2E0F0E0EC0FFD1F90
:10594000E10FF11D8081803319F411501111F4CF52
:1059500097FE0EC044244394410E812F90E0C81658
:10596000D9062CF41C1904C04424439401C010E04F
:1059700097FE06C01C141D0434F4C601019605C030
:1059800085E090E002C081E090E0011101961123D2
:1059900031F0212F30E02F5F3F4F820F931F252DD5
:1059A00030E08217930714F4581A01C0512C892D46
:1059B000897041F4552031F0B70180E290E079D34D
:1059C0005A94F8CF002321F0B701802F90E071D3D3
:1059D00093FC08C0552031F0B70180E390E069D313
:1059E0005A94F8CF97FE4AC04601D7FE02C0812CD8
:1059F000912CC60188199909F301E80FF91FFE8758
:105A0000ED87960124193109388B2F87012F10E07B
:105A10001195019511093FEF8316930621F4B70103
:105A20008EE290E046D3C814D9044CF08F85988953
:105A30008815990524F4ED85FE85818101C080E3F8
:105A4000F1E08F1A91082D853E852F5F3F4F3E87ED
:105A50002D878016910624F0B70190E02AD3DBCF82
:105A6000C814D90441F49A81963320F4953319F47B
:105A70003C8534FF81E3B70190E048C08A818133DF
:105A800019F09C859F7E9C87B70190E012D311117D
:105A900005C094FC16C085E690E015C0B7018EE203
:105AA00090E007D31E5F82E001E0080FF301E80FEA
:105AB000F11D8081B70190E0FCD2802F0113F4CF5B
:105AC000E8CF85E490E0B701F4D2D7FC06C0C1145A
:105AD000D10441F4EC85E4FF05C0D194C194D10810
